:100000000C9490000C94B1000C94B1000C94B100CD
:100010000C94B1000C94B1000C94B1000C94B1009C
:100020000C94B1000C94B1000C94B1000C94B1008C
:100030000C94B1000C94B1000C94B1000C94B1007C
:100040000C94B1000C94B1000C94B1000C94B1006C
:100050000C94AA180C94B1000C94B1000C94B1004B
:100060000C94B1000C94B1000C94B1000C94B1004C
:100070000C94B1000C94B1000C94B1000C94B1003C
:100080000C94B1000C94B1000C94B1000C94B1002C
:100090000C94B1000C94B1000C94B1000C94B1001C
:1000A0000C94B1000C94B1000C94B1000C94B1000C
:1000B0000C94B1000C94B1000C94B1000C94B100FC
:1000C0000C94B1000C94B1000C94B1000C94B100EC
:1000D0000C94B1000C94B1000C94B1000C94B100DC
:1000E0000C94B1000C94F2010C94EF180C9487025C
:1000F0000C94AC140C945A040C943C020C94F91417
:100100000C9489150C94F7020C94C8020C945103BA
:100110000C9454190C94B9000C94FD160C943B03E8
:1001200011241FBECFEFD1E2DEBFCDBF00E00CBF78
:1001300012E0A0E0B2E0ECEAFDE300E00BBF02C099
:1001400007900D92AC39B107D9F722E0ACE9B2E0E3
:1001500001C01D92AE3AB207E1F70E944E190C940D
:10016000D41E0C940000A0EEB0E0E9EBF0E00C949B
:10017000591A6C015B017A0180E2F601DE011196E9
:1001800001900D928A95E1F7CE0181960E94B90205
:10019000CE018F5B9F4F0E94B30280E2F601DE0129
:1001A000AF59BF4F01900D928A95E1F7CE018F575D
:1001B0009F4F0E94B9028FE1E80EF11C90E2792E68
:1001C00026E0822E912C01EA10E00C0F1D1F005E2C
:1001D0001F4F01C0962CF701208130E0082C02C08F
:1001E000359527950A94E2F7F22FF1706F2E9F262E
:1001F000CE018F559F4F0E94B302492DBE016F5D06
:100200007F4FCE018F559F4F0E94D702492DBE01CF
:100210006F597F4FCE0181960E94D702492DBE01B2
:100220006F557F4FCE018F599F4F0E94D702492DA6
:10023000BE016F5B7F4FCE018F559F4F0E94D7024B
:10024000492DBE016F577F4FCE018F5B9F4F0E949C
:10025000D702492DBE016F557F4FCE018F579F4F5B
:100260000E94D702AE014F575F4FBE016F597F4FBB
:10027000CE018F559F4F0E946103AE014F575F4FD4
:10028000BE016F597F4FCB010E94A607AE014F5BA5
:100290005F4FBE016F5D7F4FCE018F579F4F0E9412
:1002A0006103AE014F5B5F4FBE016F5D7F4FCB01BE
:1002B0000E94A607AE014F5D5F4FBE016F557F4F95
:1002C000CB010E943503AE014F575F4FBE016F59FE
:1002D0007F4FCB010E943503BE016F577F4FCB018B
:1002E0000E944B03BE016F5D7F4FCB010E944B0309
:1002F000AE014F5D5F4FBE016F577F4FC8010E9437
:10030000A607B801CE018F5B9F4F0E94E905AE01A1
:100310004F5D5F4FBE016F5B7F4FCB010E9461035A
:10032000AE014F5B5F4FB801CA010E943503AE01B9
:100330004F5D5F4FBE016F577F4FCA010E9435036B
:10034000AE014F595F4FBE016F557F4FCE018F57A2
:100350009F4F0E94A607BE016F577F4FCB010E949F
:100360004B03AE014F5F5F4FBE016F577F4FCB0115
:100370000E943503AE014F595F4FBE016F557F4F4D
:10038000CA010E946103BE016F597F4FCB010E94D9
:100390004B038A9487FE1ECF7A9481E0E81AF10815
:1003A000772021F087E0882E962C15CF80E2FE0181
:1003B000B196D60101900D928A95E1F780E2FE0197
:1003C000EF5BFF4FD50101900D928A95E1F7C05286
:1003D000DF4FEEE00C94751AA0E6B0E0E2EFF1E03A
:1003E0000C94631A8C0180E2FB01DE01AF5BBF4F0E
:1003F00001900D928A95E1F722968FAD2297887F22
:1004000022968FAF2297A1968FADA1978F778064A8
:10041000A1968FAFA197BA01CE0181960E94E40206
:10042000AE014F5B5F4FBE016F5F7F4FCE01819684
:100430000E94B300BE016F5F7F4FCB010E94540446
:10044000AE014F5F5F4FBE016F5D7F4FCB010E94DA
:100450003503BE016F5D7F4FC8010E94F10280E04D
:1004600090E0C05ADF4FE4E00C947F1AA0E6B0E0C1
:10047000ECE3F2E00C94631A8C0180E2FB01DE01F4
:10048000AF5BBF4F01900D928A95E1F722968FAD39
:100490002297887F22968FAF2297A1968FADA19742
:1004A0008F778064A1968FAFA19766E072E0CE014E
:1004B00081960E94E402AE014F5B5F4FBE016F5F09
:1004C0007F4FCE0181960E94B300BE016F5F7F4FC8
:1004D000CB010E945404AE014F5F5F4FBE016F5DC0
:1004E0007F4FCB010E943503BE016F5D7F4FC80176
:1004F0000E94F10280E090E0C05ADF4FE4E00C94EB
:100500007F1AA0E2B0E0E7E8F2E00C94611A7C0107
:10051000BC01CE0101960E94990881508E010F5DA9
:100520001F4FF701DE0111962D91308123272823DB
:1005300023272193A017B107B9F7B701CE01019680
:100540000E9499088150F701DE0111969D9120814A
:1005500092279823922791930A171B07B9F7A09621
:10056000E6E00C947D1A20E2FC0111922A95E9F74D
:100570000895FC0181E081938FE1DF011D928A954E
:10058000E9F70895A0E2B0E0E8ECF2E00C94651A17
:10059000AB01BE016F5F7F4F20E2FB0111922A95F4
:1005A000E9F70E94A607A096E2E00C94811A419513
:1005B000DB01FC0190E28D91208182278423822738
:1005C00081939150C1F70895DB01FC0120E03D913A
:1005D00031932F5F2032D9F7FC01278D2F77278F9A
:1005E0000895A0E4B0E0E7EFF2E00C94611A8C010A
:1005F00080E2FB01DE01919601900D928A95E1F770
:100600007E0181E2E80EF11CB701CE0101960E9445
:1006100099088150D701FE01319691912C91922732
:10062000982392279D93EE15FF05B9F7B701CE01E8
:1006300001960E9499088150D701FE01319691914F
:100640002C919227982392279D93EE15FF05B9F7D9
:1006500080E2FE01B196D80101900D928A95E1F7F2
:10066000C05CDF4FE6E00C947D1AA0E4B0E0EBE361
:10067000F3E00C94631A8C01CE0101960E94380DB0
:10068000BE016F5F7F4FC8010E947406C05CDF4FE0
:10069000E4E00C947F1AA0E4B0E0E1E5F3E00C9410
:1006A000631A8C01CE0101960E948412BE016F5F15
:1006B0007F4FC8010E947406C05CDF4FE4E00C94D9
:1006C0007F1ADB01FC01CE01EA0136E24D9159911E
:1006D000450F41934D915991451F41934D9159912A
:1006E000451F41934D915991451F41934D9159910A
:1006F000451F41934D915991451F41934D915991FA
:10070000451F41934D915991451F41934D915991E9
:10071000451F41934D915991451F41934D915991D9
:10072000451F41934D915991451F41934D915991C9
:10073000451F41934D915991451F41934D915991B9
:10074000451F41934D915991451F41934D915991A9
:10075000451F41934D915991451F41934D91599199
:10076000451F41934D915991451F41934D91599189
:10077000451F41934D915991451F41934D91599179
:10078000451F41934D915991451F41934D91599169
:10079000451F41934D915991451F41934D91599159
:1007A000451F41934D915991451F41934D91599149
:1007B000451F41934D915991451F41934D91599139
:1007C000451F41934D915991451F41935527551F01
:1007D000B0974081539F400D419355274081451F5D
:1007E00041934081451F41934081451F4193408182
:1007F000451F41934081451F41934081451F4193CF
:100800004081451F41934081451F41934081451FD1
:1008100041934081451F41934081451F4193408151
:10082000451F41934081451F41934081451F41939E
:100830004081451F41934081451F41934081451FA1
:1008400041934081451F41934081451F4193408121
:10085000451F41934081451F41934081451F41936E
:100860004081451F41934081451F41934081451F71
:1008700041934081451F41934081451F41934081F1
:10088000451F41934081451F41934081451F41933E
:100890004081451F4193551FB0974081539F400DA4
:1008A0004193EC0111240895A0EEB0E0EAE5F4E0F4
:1008B0000C94611A7C018B01CE018F539F4F0E94D3
:1008C0004B03BE016F537F4FCE0101960E944B0335
:1008D000BE016F5F7F4FCE0181960E944B03A8013E
:1008E000BE016F5D7F4FCE018F579F4F0E94350332
:1008F000AE014F535F4FBE016F577F4FCE018F55F3
:100900009F4F0E943503BE016F557F4FCE018196E8
:100910000E944B03AE014F575F4FBE016F5D7F4F8B
:10092000CA010E943503BE016F577F4FCE018196E9
:100930000E944B03BE016F5D7F4FCE0101960E9466
:100940004B03BE016F5F7F4FCE0181960E944B0328
:10095000BE016F5D7F4FCE0101960E944B03BE0129
:100960006F5F7F4FCE0181960E944B03AE014F57C0
:100970005F4FBE016F5D7F4FCA010E943503BE010C
:100980006F577F4FCE0181960E944B03BE016F5D72
:100990007F4FCE0101960E944B0314E0BE016F5FB2
:1009A0007F4FCE0181960E944B03BE016F5D7F4F4A
:1009B000CE0101960E944B03115081F7AE014F57B3
:1009C0005F4FBE016F5F7F4FCE018F599F4F0E94D7
:1009D0003503BE016F597F4FCE0181960E944B03B4
:1009E000BE016F5D7F4FCE0101960E944B0319E05F
:1009F000BE016F5F7F4FCE0181960E944B03BE0107
:100A00006F5D7F4FCE0101960E944B03115081F71D
:100A1000AE014F595F4FBE016F5F7F4FCE01819690
:100A20000E943503BE016F5D7F4FCE0101960E948B
:100A30004B03BE016F5F7F4FCE0181960E944B0337
:100A400014E0BE016F5D7F4FCE0101960E944B0303
:100A5000BE016F5F7F4FCE0181960E944B03115004
:100A600081F7AE014F575F4FBE016F5D7F4FCE01E3
:100A70008F599F4F0E943503BE016F597F4FCE01A2
:100A800081960E944B03BE016F5D7F4FCE010196A0
:100A90000E944B0318E1BE016F5F7F4FCE0181962C
:100AA0000E944B03BE016F5D7F4FCE0101960E94F5
:100AB0004B03115081F7AE014F595F4FBE016F5F7D
:100AC0007F4FCE018F5B9F4F0E943503BE016F5B4E
:100AD0007F4FCE0101960E944B03BE016F5F7F4F97
:100AE000CE0181960E944B0311E3BE016F5D7F4FE3
:100AF000CE0101960E944B03BE016F5F7F4FCE0176
:100B000081960E944B03115081F7AE014F5B5F4FFE
:100B1000BE016F5D7F4FCE0101960E943503BE017D
:100B20006F5F7F4FCE0181960E944B03BE016F5DC8
:100B30007F4FCE0101960E944B0318E1BE016F5F0B
:100B40007F4FCE0181960E944B03BE016F5D7F4FA8
:100B5000CE0101960E944B03115081F7AE014F590F
:100B60005F4FBE016F5F7F4FCE0181960E943503BC
:100B7000BE016F5D7F4FCE0101960E944B03BE0107
:100B80006F5F7F4FCE0181960E944B03BE016F5D68
:100B90007F4FCE0101960E944B03BE016F5F7F4FD6
:100BA000CE0181960E944B03BE016F5D7F4FCE0147
:100BB00001960E944B03AE014F555F4FBE016F5F20
:100BC0007F4FC7010E943503C052DF4FE6E00C940F
:100BD0007D1A8F92FC01DB01882422E43BED5D91BC
:100BE000259F0192612D359F600D752F711D8827FE
:100BF000881F5D91259F600D711D881D6193359F34
:100C0000700D811D850F6627681D99E05D91259FF8
:100C1000700D811D681D7193359F800D611D650FDD
:100C20007727781D5D91259F800D611D781D81932B
:100C3000359F600D711D750F8827881D5D91259F5B
:100C4000600D711D881D6193359F700D811D850F8D
:100C50006627681D9A95D1F65D91259F700D811DBF
:100C6000681D7193359F800D611D650F7727781D75
:100C70005D91259F800D611D781D8193359F600DCD
:100C8000711D750F8827881D5D91259F600D711D51
:100C9000881D359F700D811D850F262F3FE763232B
:100CA00061936627681D220F771F881F661F23E147
:100CB000729F702D312D829F300D8827811D629F7C
:100CC000800DB0972081270F21932081231F21932E
:100CD0002081281F21939DE12081281D21939A9531
:100CE000D9F711248F900895222736E2DB01FC0109
:100CF000CE01EB015F965C915F97A0966F8D639F2D
:100D0000500D121E550F111C5695578F33E1319D12
:100D100036E25D917727500D711D6991639F500DEB
:100D2000711D51935D916991639F570F7727711DD5
:100D3000500D721F51935D916991639F570F7727F3
:100D4000711D500D721F51935D916991639F570FF3
:100D50007727711D500D721F51935D916991639FAB
:100D6000570F7727711D500D721F51935D91699137
:100D7000639F570F7727711D500D721F51935D911F
:100D80006991639F570F7727711D500D721F519303
:100D90005D916991639F570F7727711D500D721FE9
:100DA00051935D916991639F570F7727711D500D86
:100DB000721F51935D916991639F570F7727711D42
:100DC000500D721F51935D916991639F570F772763
:100DD000711D500D721F51935D916991639F570F63
:100DE0007727711D500D721F51935D916991639F1B
:100DF000570F7727711D500D721F51935D916991A7
:100E0000639F570F7727711D500D721F51935D918E
:100E10006991639F570F7727711D500D721F519372
:100E20005D916991639F570F7727711D500D721F58
:100E300051935D916991639F570F7727711D500DF5
:100E4000721F51935D916991639F570F7727711DB1
:100E5000500D721F51935D916991639F570F7727D2
:100E6000711D500D721F51935D916991639F570FD2
:100E70007727711D500D721F51935D916991639F8A
:100E8000570F7727711D500D721F51935D91699116
:100E9000639F570F7727711D500D721F51935D91FE
:100EA0006991639F570F7727711D500D721F5193E2
:100EB0005D916991639F570F7727711D500D721FC8
:100EC00051935D916991639F570F7727711D500D65
:100ED000721F51935D916991639F570F7727711D21
:100EE000500D721F51935D916991639F570F772742
:100EF000711D500D721F51935D916991639F570F42
:100F00007727711D500D721F51935D916991639FF9
:100F1000570F7727711D500D721F51935D91699185
:100F2000639F570F7727711D500D721F51935D916D
:100F30006991639F570F7727711D500D721F519351
:100F40005081570F5083EC0111240895DB01FC01FF
:100F5000CE01EA0136E24D915991451B41934D91E5
:100F60005991450B41934D915991450B41934D91A9
:100F70005991450B41934D915991450B41934D9199
:100F80005991450B41934D915991450B41934D9189
:100F90005991450B41934D915991450B41934D9179
:100FA0005991450B41934D915991450B41934D9169
:100FB0005991450B41934D915991450B41934D9159
:100FC0005991450B41934D915991450B41934D9149
:100FD0005991450B41934D915991450B41934D9139
:100FE0005991450B41934D915991450B41934D9129
:100FF0005991450B41934D915991450B41934D9119
:101000005991450B41934D915991450B41934D9108
:101010005991450B41934D915991450B41934D91F8
:101020005991450B41934D915991450B41934D91E8
:101030005991450B41934D915991450B41934D91D8
:101040005991450B41934D915991450B41934D91C8
:101050005991450B41935527551FB0974081539F98
:101060004019419355274081450B41934081450BE1
:1010700041934081450B41934081450B4193408111
:10108000450B41934081450B41934081450B419372
:101090004081450B41934081450B41934081450B75
:1010A00041934081450B41934081450B41934081E1
:1010B000450B41934081450B41934081450B419342
:1010C0004081450B41934081450B41934081450B45
:1010D00041934081450B41934081450B41934081B1
:1010E000450B41934081450B41934081450B419312
:1010F0004081450B41934081450B41934081450B15
:1011000041934081450B41934081450B4193408180
:10111000450B41934081450B41934081450B4193E1
:10112000551FB0974081539F40194193EC01112402
:101130000895DB01FC015DEE4D91451B41935FEF8E
:101140004D91450B41934D91450B41934D91450B6D
:1011500041934D91450B41934D91450B41934D91D9
:10116000450B41934D91450B41934D91450B419357
:101170004D91450B41934D91450B41934D91450B3D
:1011800041934D91450B41934D91450B41934D91A9
:10119000450B41934D91450B41934D91450B419327
:1011A0004D91450B41934D91450B41934D91450B0D
:1011B00041934D91450B41934D91450B41934D9179
:1011C000450B41934D91450B41934D91450B4193F7
:1011D0004D91450B41934D91450B41934D91450BDD
:1011E00041934D91450B41934D91450B41934D9149
:1011F000450B41935FE74D91450B41938827881F2D
:101200000895442755278A01289C6001269C500197
:10121000279CB00CC11CD51E399C7001299C9001E3
:10122000369CB00CC11CD21E351F379CC00CD11C83
:10123000351F499CE30EF01C011D489C9001469C03
:10124000C00CD11CE21E351F389CD00CE11C351F90
:10125000599CF30E001D111D579C9001479CD00C0A
:10126000211D351F569CD00C211D351F589CE20EA8
:10127000031E151EF00C011D151FA082B182C28233
:10128000D3825A012D913D914D916C817D818E814A
:101290009F81269FE00CF11C051FB51E279FF00CB7
:1012A000011DB51E369FF00C011D1B1DA51E289F9C
:1012B000000D111DA51E379F000D111DA51E469F77
:1012C000000D111DA51EBB24299F100DA11CB51ECC
:1012D000389F100DA11CB51E479F100DA11CB51EF7
:1012E000221A330A440A2D91520A0008661A770A14
:1012F000880A990A110820243024402450246124AB
:1013000071248124912401941194200C351E451ED2
:10131000551E610C751E851E951E012400FA269F20
:10132000100DA11CB51E399F3327A00CB11C351F11
:10133000489FA00CB11C351F279FA00CB11C351F66
:10134000499F4427B00C311D451F289FB00C311D0B
:10135000451F299F300D411D882799272227269C4C
:10136000B001279C700D811D369C700D811D951F4D
:10137000289C800D911D251F379C800D911D251FD8
:10138000469C800D911D251F299C2224900D211D16
:10139000251E389C900D211D251E479C900D211D5A
:1013A000251E569C900D211D251E399C3324200D91
:1013B000211C351E489C200D211C351E579C200DDC
:1013C000211C351E499C4424200C311C451E589C70
:1013D000200C311C451E599C300C411C60807180D2
:1013E0006E0C7F1CC01ED11EEA1CFB1C031F141FA9
:1013F000882480F88A94581D052E05946825782540
:10140000882598252825282438244824880C661EF9
:10141000771EC81ED91EE21EF21C031D141DA51E38
:10142000B01C301D401D64827582C682D782B70110
:10143000C8012A2D5B2DCC24DD24760186012D9058
:101440003D904D905D90688479848A849B84269C2D
:101450005001279CB00CC11C369CB00CC11CD11E85
:10146000289CC00CD11CE11E379CC00CD11CE11E75
:10147000469CC00CD11CE11E299CD00CE11CF11E25
:10148000389CD00CE11CF11E479CD00CE11CF11ED5
:10149000569CD00CE11CF11E6A0D608B7B1D718B7C
:1014A0008C1D828B9D1D938BA21EA48AB51EB58AAE
:1014B000C31ED41E00080F9244275527399CE00C08
:1014C000F11C051F489CE00CF11C051F579CE00C0B
:1014D000F11C051F499CF00C011D151F589CF00CB8
:1014E000011D151F599C000D111D5A012D913D9193
:1014F0004D916C857D858E859F85269FE00CF11C26
:10150000051FB51E279FF00C011DB51E369FF00C60
:10151000011D1B1DA51E289F000D111DA51E379F17
:10152000000D111DA51E469F000D111DA51EBB24FB
:10153000299F100DA11CB51E389F100DA11CB51EB2
:10154000479F100DA11CB51E221A330A440A2D9183
:10155000520A0008661A770A880A990A1108202494
:101560003024402450246124712481249124019446
:101570001194200C351E451E551E610C751E851ECE
:10158000951E012400FA269F100DA11CB51E399F3F
:101590003327A00CB11C351F489FA00CB11C351F70
:1015A000279FA00CB11C351F499F4427B00C311D4B
:1015B000451F289FB00C311D451F299F300D411D2F
:1015C000882799272227269CB001279C700D811D12
:1015D000369C700D811D951F289C800D911D251F27
:1015E000379C800D911D251F469C800D911D251F48
:1015F000299C2224900D211D251E389C900D211D13
:10160000251E479C900D211D251E569C900D211DC9
:10161000251E399C3324200D211C351E489C200D8D
:10162000211C351E579C200D211C351E499C44242D
:10163000200C311C451E589C200C311C451E599C09
:10164000300C411C648875886E0C7F1CC01ED11E36
:10165000EA1CFB1C031F141F551F0F900194E00C84
:101660000024F01C001D101D882480F88A94581D49
:10167000052E059468257825882598252825282471
:1016800038244824880C661E771EC81ED91EE21E08
:10169000F21C031D141DA51EB01C301D401D648AC4
:1016A000758AC68AD78AE08EF18E028F138FA48E38
:1016B000B58E368F478F50972D903D904D905D9011
:1016C0002D913D914D915D91AD90BD90CD90DD906E
:1016D000ED90FD900D911D91AF93BF93CF93DF934C
:1016E0002A183B084C085D082E093F09400B510B96
:1016F0000008688079808A809B806C817D818E81E2
:101700009F81A884B984CA84DB84EC84FD840E851F
:101710001F856A187B088C089D086E097F09800B5D
:10172000910B1108202430244024502420253025FA
:10173000402550256124712481249124612571253F
:101740008125912501941194AA27BB27200C3A1ECC
:101750004A1E5A1E2A1F3A1F4A1F5A1F610C7A1E20
:101760008A1E9A1E6A1F7A1F8A1F9A1F01240F92CF
:101770008D01289C6001269C5001279CB00CC11C47
:10178000DA1E399C7001299CE001369CB00CC11C0A
:10179000DC1EDA1F379CC00CD11CDA1F499CED0EF1
:1017A000F01C011D489CE001469CC00CD11CEC1EA5
:1017B000DA1F389CD00CE11CDA1F599CFD0E001D6D
:1017C000111D579CE001479CD00CC11DDA1F569C8F
:1017D000D00CC11DDA1F589CEC0E0D1E1A1EF00C09
:1017E000011D1A1F221A330A440A550A0008661AF4
:1017F000770A880A990A11082024302440245024AA
:10180000612471248124912401941194200C3A1EA6
:101810004A1E5A1E610C7A1E8A1E9A1E012400FA64
:10182000289FE001269FE00CF11C0C1FDA1F279F68
:10183000F00C011DDA1F399F1D0FA01DB11D299F3E
:10184000E001369FF00C011D1C1F2227D21F379F7D
:10185000000D111DD21F499FAD0FB01D2227211D64
:10186000489FE001469F000D111DAC1F0024D01DB4
:10187000389F100DA11D3327D31F599FBD0F201D69
:101880009927911D579FE001479F100DC11DD31F40
:10189000569F100DC11DD31F589FAC0F0D1E131E58
:1018A000B00D211D931F289CB001269CA001279CF0
:1018B000500D611D731F399C802D022C212C099C19
:1018C000E001369C500D611D7C1FD31F379C600DBD
:1018D000711DD31F499C8D0F201C311D489CE001B8
:1018E000469C600D711D8C1F0024D01D389C700D0E
:1018F000811D3324D31D599C2D0E301D9924911C1C
:10190000579CE001479C700DC11DD31D569C700D66
:10191000C11DD31D589C8C0F0D1E131C200C311D96
:10192000931C25013601AE0CBF1CC01ED11EEA1E41
:10193000FB1E021F191F002400F80A94301C132CF0
:1019400015944025502560257025802520243025BC
:101950009024000CA41EB51EC61ED71EE81EF21C45
:10196000031F191DA31DB11D211D911D392F40817C
:1019700051816281738184819581868097800F90E7
:101980000A94102C15944024502460247024A02420
:10199000B024C024D024E024F02400251025A02564
:1019A000B02520253025C02DCC0F441D551D661DAA
:1019B000771D8A1D9B1D8C1C9D1CCC27CC1F20884D
:1019C0003188420D531D40875187A10122883388F9
:1019D000621D731D62877387B10124883588821D5B
:1019E000931D84879587C10126883788821C931CA4
:1019F0008686978641012224221CC6954E1D5F1DB6
:101A0000601F711F8A1F9B1F821E931E0C1E1C1EAF
:101A1000408C518C628C738CA48CB58CC68CD78C0A
:101A20002694441D551D661D771D8A1D9B1D8C1C0B
:101A30009D1C021C121C408B518B628B738B848B00
:101A4000958B868A978A400C511C611C711CA11CC5
:101A5000B11CC11CD11C408E518E628E738EA48E1F
:101A6000B58EC68ED78EDF91CF91BF91AF9108957D
:101A70002F923F924F925F926F927F928F929F929E
:101A8000AF92BF92CF92DF92EF92FF920F931F938C
:101A9000CF93DF93FC01EA01DB012D903D904D9047
:101AA0005D90688079808A809B80ABDB6096B09681
:101AB0002D903D904D905D90688079808A809B80CC
:101AC000A0DB6097B097008810A0010C00A20188ED
:101AD00011A0011C01A2028812A0011C02A203880D
:101AE00013A0011C03A2048814A0011C04A20588F1
:101AF00015A0011C05A2068816A0011C06A20788D5
:101B000017A0011C07A2008C10A4011C00A6018CC8
:101B100011A4011C01A6028C12A4011C02A6038CB4
:101B200013A4011C03A6048C14A4011C04A6058C98
:101B300015A4011C05A6068C16A4011C06A6078C7C
:101B400017A4011C07A6002410A8101C10AA11A895
:101B5000101C11AA12A8101C12AA13A8101C13AA58
:101B600014A8101C14AA15A8101C15AA16A8101C3D
:101B700016AA17A8101C17AA10AC101C10AE11AC96
:101B8000101C11AE12AC101C12AE13AC101C13AE14
:101B900014AC101C14AE15AC101C15AE16AC101CF9
:101BA00016AE17AC101C17AE90972D903D904D902F
:101BB0005D902D913D914D915D91AD90BD90CD90F9
:101BC000DD90ED90FD900D911D910D9020180D90E0
:101BD00030080D9040080D9050080D9020090D9090
:101BE00030090D9040090D9050090D90A0080D90FE
:101BF000B0080D90C0080D90D0080D90E0080D9031
:101C0000F0080D9000090C901009000820243024E1
:101C1000402450242025302540255025A024B024E0
:101C2000C024D024E024F024002510250194662748
:101C3000200C361E461E561E261F361F461F561FD8
:101C4000A61EB61EC61ED61EE61EF61E061F161FB2
:101C5000ADB7BEB719971E930E93FE92EE92DE9229
:101C6000CE92BE92AE925E934E933E932E935E9230
:101C70004E923E922E92688079808A809B806C8101
:101C80007D818E819F81A884B984CA84DB84EC84A1
:101C9000FD840E851F8518886118198871081A88B7
:101CA00081081B8891081C8861091D8871091E889C
:101CB00081091F889109188CA108198CB1081A8C08
:101CC000C1081B8CD1081C8CE1081D8CF1081E8CEE
:101CD00001091F8C110911086124712481249124A8
:101CE0006125712581259125A124B124C124D12408
:101CF000E124F124012511251194CC27610C7C1ECF
:101D00008C1E9C1E6C1F7C1F8C1F9C1FAC1EBC1E3F
:101D1000CC1EDC1EEC1EFC1E0C1F1C1F1E930E9303
:101D2000FE92EE92DE92CE92BE92AE929E938E93F1
:101D30007E936E939E928E927E926E9201240F926B
:101D4000EF93FF93FD01B097ED0154965ADADF91BE
:101D5000CF91088019802A803B804C805D806E8006
:101D60007F8088849984AA84BB84CC84DD84EE84BB
:101D7000FF844F91442311F50081001A0181100A5C
:101D80000281200A0381300A0481400A0581500A39
:101D90000681600A0781700A0085800A0185900A21
:101DA0000285A00A0385B00A0485C00A0585D00A09
:101DB0000685E00A0785F00A000B22C00081000EAC
:101DC0000181101E0281201E0381301E0481401EED
:101DD0000581501E0681601E0781701E0085801ED1
:101DE0000185901E0285A01E0385B01E0485C01EBD
:101DF0000585D01E0685E01E0785F01E0027001F02
:101E000018A1010E088A09A0101C198A1AA0211C09
:101E10002A8A2BA0321C3B8A3CA0431C4C8A4DA032
:101E2000541C5D8A5EA0651C6E8A6FA0761C7F8A3A
:101E300078A4871C888E89A4981C998E9AA4A91CC2
:101E4000AA8EABA4BA1CBB8EBCA4CB1CCC8ECDA4DA
:101E5000DC1CDD8EDEA4ED1CEE8EEFA4FE1CFF8EDE
:101E60002227221F442321F506950089100B0189A2
:101E7000000A0289100A0389200A0489300A0589A8
:101E8000400A0689500A0789600A008D700A018D90
:101E9000800A028D900A038DA00A048DB00A058D78
:101EA000C00A068DD00A078DE00AAA0BBB0B24C01E
:101EB00006950089101F0189001E0289101E0389E2
:101EC000201E0489301E0589401E0689501E078980
:101ED000601E008D701E018D801E028D901E038D70
:101EE000A01E048DB01E058DC01E068DD01E078D50
:101EF000E01EAA27BB27AA1F269538A9131F18A3DF
:101F000019A9011E09A20AA8101C1AA21BA8211CAB
:101F10002BA22CA8321C3CA23DA8431C4DA24EA8CB
:101F2000541C5EA25FA8651C6FA268AC761C78A6E4
:101F300079AC871C89A68AAC981C9AA69BACA91C74
:101F4000ABA6ACACBA1CBCA6BDACCB1CCDA6CEAC73
:101F5000DC1CDEA6DFACED1CEFA6A21FB21F3A0F01
:101F60001B1F0B1E1B1E2B1E3B1E4B1E5B1E6B1EC8
:101F70007B1E8B1E9B1EAB1EBB1ECB1EDB1E38ABFF
:101F800019AB0AAA1BAA2CAA3DAA4EAA5FAA68AE40
:101F900079AE8AAE9BAEACAEBDAECEAEDFAE112496
:101FA000DF91CF911F910F91FF90EF90DF90CF9035
:101FB000BF90AF909F908F907F906F905F904F9069
:101FC0003F902F900895AA27BB27CF93DF93239CA0
:101FD00050016D01249CB00CC11C7D01259CC00CDE
:101FE000D11C349CC00CD11CEA1E269CD00CE11CD8
:101FF000359CD00CE11CFA1E8D01279CE00CF11CD5
:102000000A1F369CE00CF11C0A1F459CE00CF11CD9
:102010000A1F289CF00C011D1A1F379CF00C011D93
:102020001A1F469CF00C011D1A1F9D01299C000DD2
:10203000111D2A1F389C000D111D2A1F479C000DE1
:10204000111D2A1F569C000D111D2A1FAA1CBB1C06
:10205000CC1CDD1CEE1CFF1C001F990B229C008277
:10206000212C339CA001449CB001559CA20CA18260
:10207000B41EB282C51EC382D61ED482E71EE5827C
:10208000F01CF682011D07839A0B399C100D211D4F
:102090003A1F489C100D211D3A1F579C100D211D01
:1020A0003A1FAD01499C200D311D4A1F589C200D3F
:1020B000311D4A1F679C200D311D4A1F599C300D50
:1020C000411D5A1F689C300D411D5A1FBD01699C5E
:1020D000400D511D6A1F789C400D511D6A1F799C4F
:1020E000500D611D7A1F8827899C600D711D8A1F04
:1020F000111F221F331F441F551F661F771F881F84
:10210000669C9195090E1A1E5001779C6001889C6F
:102110007001999C10011A0D2B1D3C1D4D1D5E1D5B
:102120006F1D721D831D288439844A845B846C84EE
:102130007D848E849F84239C50016D01249CB00C6F
:10214000C11C7D01259CC00CD11C349CC00CD11C31
:10215000EA1E269CD00CE11C359CD00CE11CFA1E1A
:102160000A2F279CE00CF11C0A1F369CE00CF11C86
:102170000A1F459CE00CF11C0A1F289CF00C011D55
:10218000AB1F379CF00C011DAB1F469CF00C011DD2
:10219000AB1F299C000DA11DBB0B389C000DA11D80
:1021A000B040479C000DA11DB040569C000DA11DE4
:1021B000B040B195AA0CBB1CCC1CDD1CEE1CFF1C56
:1021C000001F990BA20EB31EC41ED51EE61EF71EDD
:1021D000081F9040229C9001339CA001449CB001B8
:1021E000559C210F208BA31EA18AB41EB28AC51E46
:1021F000C38AD61ED48AE71EE58AF01CF68A011D22
:10220000078B904011273327399CA00DB11D311F3A
:10221000489CA00DB11D311F579CA00DB11D311F51
:10222000412F499CB00D311D411F589CB00D311DEF
:10223000411F679CB00D311D411F512F599C300D1E
:10224000411D511F689C300D411D511F612F699C1C
:10225000400D511D611F789C400D511D611F712F54
:10226000799C500D611D711F8827899C600D711D1F
:10227000811FAA1FBB1F331F441F551F661F771FD7
:10228000881F669C9195090E111E5001779C600174
:10229000889C7001999CAA0DA08FBB1DB18F3C1D1D
:1022A000328F4D1D438F5E1D548F6F1D658F701DC6
:1022B000768F811D878FA880B980CA80DB80EC80F3
:1022C000FD800E811F812A183B084C085D086E08AE
:1022D0007F08800A910ABB27AA0B2A263A264A269B
:1022E0005A266A267A268A269A26A1952A0E3B1E07
:1022F0004B1E5B1E6B1E7B1E8B1E9B1EAA27239CE8
:1023000050016D01249CB00CC11C7D01259CC00CAA
:10231000D11C349CC00CD11CEA1E269CD00CE11CA4
:10232000359CD00CE11CFA1E8D01279CE00CF11CA1
:102330000A1F369CE00CF11C0A1F459CE00CF11CA6
:102340000A1F289CF00C011D1A1F379CF00C011D60
:102350001A1F469CF00C011D1A1F9D01299C000D9F
:10236000111D2A1F389C000D111D2A1F479C000DAE
:10237000111D2A1F569C000D111D2A1FAA1CBB1CD3
:10238000CC1CDD1CEE1CFF1C001F990B229CE001E5
:10239000339CA001449CB001559CAD0EB41EC51EDB
:1023A000D61EE71EF01C011D9A0B399C100D211D35
:1023B0003A1F489C100D211D3A1F579C100D211DDE
:1023C0003A1FAD01499C200D311D4A1F589C200D1C
:1023D000311D4A1F679C200D311D4A1F599C300D2D
:1023E000411D5A1F689C300D411D5A1FBD01699C3B
:1023F000400D511D6A1F789C400D511D6A1F799C2C
:10240000500D611D7A1F8827899C600D711D8A1FE0
:10241000111F221F331F441F551F661F771F881F60
:10242000669C9195090E1A1E1001779C2001889CCC
:102430003001999C120D231D341D451D561D671D2D
:10244000701D811D20883188428853886488758872
:1024500086889788C219A308B408C508D608E70873
:10246000F80809090008D081DC1BD087D181DA097E
:10247000D187D281DB09D287D381DC09D387D4818C
:10248000DD09D487D581DE09D587D681DF09D687D6
:10249000D781D00BD787210A320A430A540A650A2A
:1024A000760A870A980AAA0BA08CB18CC28CD38CAE
:1024B000E48CF58C068D178D000C2A1C3B1C4C1CE3
:1024C0005D1C6E1C7F1C801E911E208A318A428AF0
:1024D000538A648A758A868A978A2227A21FBA2F0E
:1024E000B595AA0EBB1ECB1EDB1EEB1EFB1E0B1FE3
:1024F0001B1FA08EB18EC28ED38EE48EF58E068FFA
:10250000178FDF91CF9108952F923F924F925F9254
:102510006F927F928F929F92AF92BF92CF92DF92F3
:10252000EF92FF920F931F93CF93DF93FC01EB0188
:10253000288039804A805B806C807D808E809F807F
:1025400042DD6096B096288039804A805B806C803E
:102550007D808E809F8037DD6097B097008810A0C7
:10256000010C00A2018811A0011C01A2028812A086
:10257000011C02A2038813A0011C03A2048814A05A
:10258000011C04A2058815A0011C05A2068816A03E
:10259000011C06A2078817A0011C07A2008C10A42A
:1025A000011C00A6018C11A4011C01A6028C12A41E
:1025B000011C02A6038C13A4011C03A6048C14A402
:1025C000011C04A6058C15A4011C05A6068C16A4E6
:1025D000011C06A6078C17A4011C07A60024201CBA
:1025E00020AA301C31AA401C42AA501C53AA601CCD
:1025F00064AA701C75AA801C86AA901C97AAA01CAD
:10260000A0AEB01CB1AEC01CC2AED01CD3AEE01C9C
:10261000E4AEF01CF5AE001D06AF101D17AF28800C
:1026200039804A805B806C807D808E809F80A8840A
:10263000B984CA84DB84EC84FD840E851F850888F8
:102640002018098830080A8840080B8850080C8830
:1026500060080D8870080E8880080F889008088C24
:10266000A008098CB0080A8CC0080B8CD0080C8C10
:10267000E0080D8CF0080E8C00090F8C1009000882
:10268000202430244024502460247024802490246A
:10269000A024B024C024D024E024F0240025102558
:1026A00001946627200C361E461E561E661E761E98
:1026B000861E961EA61EB61EC61ED61EE61EF61E3A
:1026C000061F161FCDB7DEB727971A930A93FA9203
:1026D000EA92DA92CA92BA92AA929A928A927A92DA
:1026E0006A925A924A923A922A92EF93FF93FE018B
:1026F000B09769DCDF91CF91088019802A803B80F8
:102700004C805D806E807F8088849984AA84BB849D
:10271000CC84DD84EE84FF840081001A0181100ADC
:102720000281200A0381300A0481400A0581500A8F
:102730000681600A0781700A0085800A0185900A77
:102740000285A00A0385B00A0485C00A0585D00A5F
:102750000685E00A0785F00A000B18A1010E088A19
:1027600009A0101C198A1AA0211C2A8A2BA0321C2D
:102770003B8A3CA0431C4C8A4DA0541C5D8A5EA041
:10278000651C6E8A6FA0761C7F8A78A4871C888E51
:1027900089A4981C998E9AA4A91CAA8EABA4BA1CD1
:1027A000BB8EBCA4CB1CCC8ECDA4DC1CDD8EDEA4E9
:1027B000ED1CEE8EEFA4FE1CFF8E2227221F069535
:1027C0000089100B0189000A0289100A0389200A76
:1027D0000489300A0589400A0689500A0789600A77
:1027E000008D700A018D800A028D900A038DA00A67
:1027F000048DB00A058DC00A068DD00A078DE00A47
:10280000AA0BBB0B269538A9131F18A319A9011EE3
:1028100009A20AA8101C1AA21BA8211C2BA22CA8D2
:10282000321C3CA23DA8431C4DA24EA8541C5EA2E3
:102830005FA8651C6FA268AC761C78A679AC871C73
:1028400089A68AAC981C9AA69BACA91CABA6ACAC7A
:10285000BA1CBCA6BDACCB1CCDA6CEACDC1CDEA687
:10286000DFACED1CEFA6A21FB21F3A0F1B1F0B1E01
:102870001B1E2B1E3B1E4B1E5B1E6B1E7B1E8B1ED0
:102880009B1EAB1EBB1ECB1EDB1E38AB19AB0AAAB0
:102890001BAA2CAA3DAA4EAA5FAA68AE79AE8AAE40
:1028A0009BAEACAEBDAECEAEDFAE1124DF91CF910C
:1028B0001F910F91FF90EF90DF90CF90BF90AF905E
:1028C0009F908F907F906F905F904F903F902F9050
:1028D00008951092C50089E18093C40088E1809337
:1028E000C10008959091A00291110BC01092C500F3
:1028F00099E19093C40098E19093C10091E0909386
:10290000A0029091C00095FFFCCF8093C60008956F
:10291000FC0120812223C9F0319649E138E191E0A0
:102920008091A002811108C01092C5004093C4009C
:102930003093C1009093A0028091C00085FFFCCF2E
:102940002093C60021912111EBCF0895A4E0B0E0BF
:10295000ECEAF4E10C945A1A6115710509F43FC0D0
:102960008C015C01A60EB71ECE0101966C018DE7AD
:10297000E82E82E0F82E99E1792E28E1822E992422
:102980009394F80181918F011F928F93FF92EF92A0
:10299000DF92CF920E94041C99810F900F900F90AC
:1029A0000F900F900F909923B9F0FE01329680910D
:1029B000A002811108C01092C5007092C4008092DC
:1029C000C1009092A0028091C00085FFFCCF90933F
:1029D000C60091919111EBCF0A151B0591F6249633
:1029E000EDE00C94761AACE1B0E0E9EFF4E10C9480
:1029F000551A922E832E742E652E562E472E382E63
:102A0000292E188EA0E00E94AE1A09F463C0CE01F0
:102A100048969C8F8B8FE6E1F0E0FA8FE98F3AE0E1
:102A2000A32EB12CC12CD12CE12CF12C00E010E014
:102A3000292D382D472D562D652D742D832D922D42
:102A40000E94F619205DEB8DFC8D2293FC8FEB8F9D
:102A5000898D9A8D01979A8F898F292D382D472D31
:102A6000562D652D742D832D922D0E94F819922ECE
:102A7000832E742E652E562E472E382E292EA0E03A
:102A80000E94AE1A61F6898D9A8D0196FE013196EB
:102A9000E80FF91F90819923C9F0319649E138E197
:102AA00021E08091A002811108C01092C5004093DE
:102AB000C4003093C1002093A0028091C00085FF24
:102AC000FCCF9093C60091919111EBCF6C96E2E10F
:102AD0000C94711A8091A00281110BC01092C50054
:102AE00089E18093C40088E18093C10081E08093F4
:102AF000A0028091C00085FFFCCF80E38093C600D8
:102B000087E190E0C3CFA2E2B0E0E9E8F5E10C9400
:102B1000551A3A012901FC0120812223D1F0FC0140
:102B2000319649E138E191E08091A002811108C01D
:102B30001092C5004093C4003093C1009093A0024E
:102B40008091C00085FFFCCF2093C6002191211108
:102B5000EBCFEAE9F2E09AE349E138E121E0809144
:102B6000A002811108C01092C5004093C4003093A8
:102B7000C1002093A0028091C00085FFFCCF9093FC
:102B8000C60091919111EBCF6F3FFFEF7F0709F0E6
:102B9000EDC0C20101979AA389A36D8E7E8E18A203
:102BA0001F8E9C01EF8DF8A1E217F30708F0ABC070
:102BB0009F012F5F3F4F38A32F8FED8DFE8D208516
:102BC000CF0108969E8F8D8F318542855385648510
:102BD000758586859785A080B180C280D380E4808A
:102BE000F580068117810E94A51A922E832E742EDD
:102BF000652E562E472E382E292E188EA0E00E94C4
:102C0000AE1A09F49AC0CE0148969C8F8B8FE6E1EC
:102C1000F0E0FA8FE98F4AE0A42EB12CC12CD12C20
:102C2000E12CF12C00E010E0292D382D472D562DF8
:102C3000652D742D832D922D0E94F619205DEB8D4C
:102C4000FC8D2293FC8FEB8F298D3A8D2150310919
:102C50003A8F298F292D382D472D562D652D742D0E
:102C6000832D922D0E94F819922E832E742E652E9C
:102C7000562E472E382E292EA0E00E94AE1A59F665
:102C8000E98DFA8D319681E090E08C0F9D1FE80F61
:102C9000F91F90819923C9F031968091A00281118A
:102CA0000BC01092C50029E12093C40038E1309395
:102CB000C10081E08093A0028091C00085FFFCCF1D
:102CC0009093C60091919111E8CF8091A00281115B
:102CD0000BC01092C50099E19093C400E8E1E09325
:102CE000C100F1E0F093A0028091C00085FFFCCF0D
:102CF00020E22093C60029A13AA1EF8DF8A1E217A6
:102D0000F30708F455CF8091A00281110BC01092F7
:102D1000C50089E18093C40088E18093C10081E00F
:102D20008093A0028091C00085FFFCCF8AE0809351
:102D3000C600A296E2E10C94711A8091A002811162
:102D40000BC01092C50099E19093C400E8E1E093B4
:102D5000C100F1E0F093A0028091C00085FFFCCF9C
:102D600020E32093C600E7E1F0E08DCF8091A00240
:102D700081110BC01092C50089E18093C40088E1E5
:102D80008093C10081E08093A0028091C00085FF04
:102D9000FCCF8BE58093C6004B01A12CB12CC12C3C
:102DA000D12C76019B0140E050E060E070E080E0D3
:102DB00090E00E94F314E4E8F2E09DE549E138E197
:102DC00021E08091A002811108C01092C5004093BB
:102DD000C4003093C1002093A0028091C00085FF01
:102DE000FCCF9093C60091919111EBCFD2CEA0E28F
:102DF000B0E0EDEFF6E10C94551A58A34F8FFC01AB
:102E000020812223D1F0FC01319649E138E191E0A3
:102E10008091A002811108C01092C5004093C400A7
:102E20003093C1009093A0028091C00085FFFCCF39
:102E30002093C60021912111EBCFEAE9F2E09AE359
:102E400049E138E121E08091A002811108C010928F
:102E5000C5004093C4003093C1002093A00280912C
:102E6000C00085FFFCCF9093C60091919111EBCFEC
:102E70006F3FFFEF7F0709F452C18091A0028111DB
:102E80000BC01092C50089E18093C40088E1809353
:102E9000C10081E08093A0028091C00085FFFCCF3B
:102EA0008BE58093C6001B01412C512C612C712CA9
:102EB0004301188E9B0140E050E060E070E080E04C
:102EC00090E0A0E00E94AE1A09F410C1CE0148962D
:102ED0009C8F8B8FE6E1F0E0FA8FE98F6AE0A62EF7
:102EE000B12CC12CD12CE12CF12C00E010E091018F
:102EF000A201B301C4010E94F619205DEB8DFC8D87
:102F00002293FC8FEB8F898D9A8D01979A8F898FF1
:102F10009101A201B301C4010E94F81919012A010B
:102F20003B014C01A0E00E94AE1AC1F6E98DFA8D7A
:102F30003196CE0101969E8F8D8FE80FF91F9081FB
:102F40009923C9F0319649E138E121E08091A0024E
:102F5000811108C01092C5004093C4003093C10095
:102F60002093A0028091C00085FFFCCF9093C60003
:102F700091919111EBCFE4E8F2E09DE549E138E170
:102F800021E08091A002811108C01092C5004093F9
:102F9000C4003093C1002093A0028091C00085FF3F
:102FA000FCCF9093C60091919111EBCFEF8DF8A1DA
:102FB0001F01412C512C612C712C4301188E9F0153
:102FC00040E050E060E070E080E090E0A0E00E942F
:102FD000AE1A09F472C0FE017896FC8FEB8F86E181
:102FE00090E09A8F898F5AE0A52EB12CC12CD12C5C
:102FF000E12CF12C00E010E09101A201B301C40129
:103000000E94F619205DEB8DFC8D2293FC8FEB8FD7
:10301000898D9A8D01979A8F898F9101A201B301B1
:10302000C4010E94F81919012A013B014C01A0E0DA
:103030000E94AE1AC1F6E98DFA8D31968D8D9E8D66
:10304000E80FF91F90819923C9F0319649E138E1E1
:1030500021E08091A002811108C01092C500409328
:10306000C4003093C1002093A0028091C00085FF6E
:10307000FCCF9093C60091919111EBCFE7E8F2E07D
:1030800090E249E138E121E08091A002811108C07D
:103090001092C5004093C4003093C1002093A00259
:1030A0008091C00085FFFCCF9093C6009191911153
:1030B000EBCFA096E2E10C94711A8091A0028111ED
:1030C0000BC01092C50089E18093C40088E1809311
:1030D000C10081E08093A0028091C00085FFFCCFF9
:1030E00080E38093C600E7E1F0E0A8CF8091A002E2
:1030F00081110BC01092C50089E18093C40088E162
:103100008093C10081E08093A0028091C00085FF80
:10311000FCCF80E38093C600E7E1F0E00ACFCE0168
:1031200001969E8F8D8F42CF84E00E947214FFCF54
:10313000EC0184E992E00E948814CE010E94881478
:1031400082E992E00E9488140E9494188FEF9FEF0A
:103150000E94D41E1F920F920FB60F9211242F932C
:103160003F934F935F936F937F938F939F932091A0
:10317000A2023091A3024091A4025091A502609155
:10318000A6027091A7028091A8029091A9025F5FA8
:103190006F4F7F4F8F4F9F4F2093A2023093A30218
:1031A0004093A4025093A5026093A6027093A702D5
:1031B0008093A8029093A9029F918F917F916F9124
:1031C0005F914F913F912F910F900FBE0F901F90E5
:1031D0001895A0E0B0E0EFEEF8E10C945A1A809157
:1031E000A102811123C01092A2021092A302109298
:1031F000A4021092A5021092A6021092A7021092A9
:10320000A8021092A90281E085BD84E0809381002C
:1032100080916F00816080936F0016BC10928500D2
:1032200010928400789481E08093A10280908400C1
:103230009090850086B5E091A202E82BD091A30280
:10324000C091A402B091A502A091A602F091A7029C
:103250007090A8021091A902A12CB12CC12CD12CE4
:103260007601940140E050E060E070E080E090E0A2
:1032700008E00E948C1AE22BD32BC42BB52BA62B73
:10328000F72B2E2F3D2F4C2F5B2F6A2F7F2F872957
:10329000912BCDB7DEB7EDE00C94761AA8E2B0E042
:1032A000E4E5F9E10C94611A61E070E080E290E0FD
:1032B0000E94BA1A90939F0280939E02892B09F470
:1032C00087C061E070E080E290E00E94BA1A9093BB
:1032D0009D0280939C02009709F47FC0282FE09103
:1032E0009E02F0919F0281E081938F5F8132E1F72E
:1032F000E22FF92F82E081938F5F8232E1F77E0126
:1033000089E2E80EF11C8E010F5F1F4F0E94E91841
:10331000F8012083318342835383648375838683DA
:103320009783085F1F4F60919E0270919F0280916A
:103330009C0290919D020E9436020E151F0531F7E6
:1033400025E030E0AE014F5F5F4F6FEF7FEF84E528
:1033500092E00E9483158E010F5F1F4F0E94E918B3
:10336000F80120833183428353836483758386838A
:103370009783085F1F4F80919C0290919D026091FE
:103380009E0270919F02AC010E94EC010E151F0578
:1033900029F725E030E0AE014F5F5F4F6FEF7FEF21
:1033A0008BE692E00E94831580919E0290919F028D
:1033B0000E946E1B80919C0290919D020E946E1B48
:1033C0000E94941880E090E0A896E6E00C947D1AA4
:1033D00086E292E00E94981874CF8DE392E00E94FA
:1033E000981820919C0290919D0279CF689401C019
:1033F000E8948F929F92CF93DF930E94041ADF91FB
:10340000CF919F908F90089588249924F401E4012E
:10341000B0E49F93AA279A158B049C04ED05FE0542
:10342000CF05D007A10798F4AD2FDC2FCF2FFE2FAB
:10343000E92D982C892E982F872F762F652F542FC2
:10344000432F322F2227B85031F7BF9127C01B2EB0
:10345000BF91BB27220F331F441F551F661F771FC5
:10346000881F991F881C991CEE1FFF1FCC1FDD1F92
:10347000AA1FBB1F8A149B04EC05FD05CE05DF05C2
:10348000A007B10748F08A189B08EC09FD09CE098E
:10349000DF09A00BB10B21601A94E1F62EF4940120
:1034A000AF01BE01CD01000C08952F923F924F92C3
:1034B0005F926F927F928F929F92AF92BF92CF92C4
:1034C000DF92EF92FF920F931F93CF93DF93CDB7CD
:1034D000DEB7CA1BDB0B0FB6F894DEBF0FBECDBF45
:1034E00019942A88398848885F846E847D848C8406
:1034F0009B84AA84B984C884DF80EE80FD800C811F
:103500001B81AA81B981CE0FD11D0FB6F894DEBF01
:103510000FBECDBFED0108950F93083090F0982FA6
:10352000872F762F652F542F432F322F22270850B5
:10353000F4CF220F331F441F551F661F771F881FAC
:10354000991F0A95B2F70F9108952A193B094C0962
:103550005D096E097F09800B910B08950024A7FD7A
:1035600000942A1730054005500560057005800558
:10357000900508950F931F93CF93DF93869F80014B
:10358000879F100D969F100D1124C8010E94D61A16
:10359000EC01009729F0A80160E070E00E94FD1B9B
:1035A000CE01DF91CF911F910F910895CF93DF93BB
:1035B0008230910510F482E090E0E091AC02F0914D
:1035C000AD0220E030E0A0E0B0E0309739F140817A
:1035D000518148175907B8F04817590771F482818B
:1035E0009381109729F013969C938E9312972CC079
:1035F0009093AD028093AC0227C02115310531F0C4
:103600004217530718F0A901DB0101C0EF019A012D
:10361000BD01DF010280F381E02DD7CF21153105F7
:10362000F9F0281B390B2430310580F48A819B8105
:103630006115710521F0FB019383828304C090938F
:10364000AD028093AC02FE01329644C0FE01E20F4F
:10365000F31F8193919322503109398328833AC013
:103660002091AA023091AB02232B41F42091020257
:10367000309103023093AB022093AA022091000202
:10368000309101022115310541F42DB73EB740912B
:10369000040250910502241B350BE091AA02F0911F
:1036A000AB02E217F307A0F42E1B3F0B28173907D4
:1036B00078F0AC014E5F5F4F2417350748F04E0F8E
:1036C0005F1F5093AB024093AA028193919302C073
:1036D000E0E0F0E0CF01DF91CF910895CF93DF9349
:1036E000009709F487C0FC01329713821282C091BF
:1036F000AC02D091AD02209781F420813181280F56
:10370000391F8091AA029091AB028217930779F535
:10371000F093AB02E093AA026DC0DE0120E030E03E
:10372000AE17BF0750F412964D915C9113979D010F
:103730004115510509F1DA01F3CFB383A28340812A
:103740005181840F951F8A179B0771F48D919C916D
:103750001197840F951F02969183808312968D9105
:103760009C911397938382832115310529F4F0935B
:10377000AD02E093AC023EC0D9011396FC93EE93E8
:1037800012974D915D91A40FB51FEA17FB0779F4CD
:1037900080819181840F951F0296D90111969C9387
:1037A0008E938281938113969C938E931297E0E07F
:1037B000F0E08A819B81009719F0FE01EC01F9CFBE
:1037C000CE01029628813981820F931F2091AA028F
:1037D0003091AB022817390769F4309729F4109219
:1037E000AD021092AC0202C013821282D093AB02DF
:1037F000C093AA02DF91CF910895DC0101C06D93BF
:1038000041505040E0F708950F931F93CF93DF93FB
:10381000CDB7DEB72E970FB6F894DEBF0FBECDBF83
:103820000E891F8986E08C831A8309838FEF9FE7B7
:103830009E838D83AE01465E5F4F688D798DCE018C
:1038400001960E94331CEF81F885E00FF11F108272
:103850002E960FB6F894DEBF0FBECDBFDF91CF918D
:103860001F910F9108952F923F924F925F926F9206
:103870007F928F929F92AF92BF92CF92DF92EF9200
:10388000FF920F931F93CF93DF93CDB7DEB72C97A3
:103890000FB6F894DEBF0FBECDBF7C016B018A016D
:1038A000FC0117821682838181FFBDC1CE01019682
:1038B0004C01F7019381F60193FD859193FF81916E
:1038C0006F01882309F4ABC1853239F493FD8591EA
:1038D00093FF81916F01853229F4B70190E00E9436
:1038E000441EE7CF512C312C20E02032A0F48B3243
:1038F00069F030F4803259F0833269F420612CC0D1
:103900008D3239F0803339F4216026C02260246082
:1039100023C0286021C027FD27C030ED380F3A3082
:1039200078F426FF06C0FAE05F9E300D1124532E76
:1039300013C08AE0389E300D1124332E20620CC053
:103940008E3221F426FD6BC1206406C08C3611F442
:10395000206802C0883641F4F60193FD859193FFFB
:1039600081916F018111C1CF982F9F7D9554933024
:1039700028F40C5F1F4FFFE3F9830DC0833631F04D
:10398000833771F0833509F05BC022C0F801808174
:1039900089830E5F1F4F44244394512C540115C05A
:1039A0003801F2E06F0E711CF801A080B18026FF93
:1039B00003C0652D70E002C06FEF7FEFC5012C875B
:1039C0000E94391E2C0183012C852F77222E17C0CF
:1039D0003801F2E06F0E711CF801A080B18026FF63
:1039E00003C0652D70E002C06FEF7FEFC5012C872B
:1039F0000E942E1E2C012C852068222E830123FC80
:103A00001BC0832D90E048165906B0F4B70180E240
:103A100090E00E94441E3A94F4CFF50127FC859172
:103A200027FE81915F01B70190E00E94441E311092
:103A30003A94F1E04F1A51084114510471F7E5C06E
:103A4000843611F0893639F5F80127FF07C0608107
:103A50007181828193810C5F1F4F08C060817181E9
:103A6000882777FD8095982F0E5F1F4F2F76B22EF7
:103A700097FF09C090958095709561957F4F8F4F06
:103A80009F4F2068B22E2AE030E0A4010E94761EEB
:103A9000A82EA81844C0853729F42F7EB22E2AE01C
:103AA00030E025C0F22FF97FBF2E8F36C1F018F419
:103AB000883579F0B4C0803719F0883721F0AFC06D
:103AC0002F2F2061B22EB4FE0DC08B2D8460B82E36
:103AD00009C024FF0AC09F2F9660B92E06C028E0B7
:103AE00030E005C020E130E002C020E132E0F80122
:103AF000B7FE07C060817181828193810C5F1F4F87
:103B000006C06081718180E090E00E5F1F4FA401CC
:103B10000E94761EA82EA818FB2DFF77BF2EB6FE9A
:103B20000BC02B2D2E7FA51450F4B4FE0AC0B2FC9E
:103B300008C02B2D2E7E05C07A2C2B2D03C07A2C8D
:103B400001C0752C24FF0DC0FE01EA0DF11D80811E
:103B5000803311F4297E09C022FF06C07394739448
:103B600004C0822F867809F0739423FD13C020FFD0
:103B700006C05A2C731418F4530C5718732C731472
:103B800068F4B70180E290E02C870E94441E739491
:103B90002C85F5CF731410F4371801C0312C24FF95
:103BA00012C0B70180E390E02C870E94441E2C8550
:103BB00022FF17C021FF03C088E590E002C088E71C
:103BC00090E0B7010CC0822F867859F021FD02C029
:103BD00080E201C08BE227FD8DE2B70190E00E94F8
:103BE000441EA51438F4B70180E390E00E94441EFF
:103BF0005A94F7CFAA94F401EA0DF11D8081B70120
:103C000090E00E94441EA110F5CF332009F451CE5C
:103C1000B70180E290E00E94441E3A94F6CFF7018B
:103C20008681978102C08FEF9FEF2C960FB6F89494
:103C3000DEBF0FBECDBFDF91CF911F910F91FF90DF
:103C4000EF90DF90CF90BF90AF909F908F907F903C
:103C50006F905F904F903F902F900895FC010590DA
:103C6000615070400110D8F7809590958E0F9F1F7E
:103C70000895FC016150704001900110D8F78095C3
:103C800090958E0F9F1F08950F931F93CF93DF93EF
:103C9000182F092FEB018B8181FD03C08FEF9FEF60
:103CA00020C082FF10C04E815F812C813D81421770
:103CB00053077CF4E881F9819F012F5F3F4F3983DF
:103CC0002883108306C0E885F985812F1995892BF3
:103CD00029F72E813F812F5F3F4F3F832E83812F16
:103CE000902FDF91CF911F910F910895FA01AA278C
:103CF000283051F1203181F1E8946F936E7F6E5F2F
:103D00007F4F8F4F9F4FAF4FB1E03ED0B4E03CD0DC
:103D1000670F781F891F9A1FA11D680F791F8A1FBF
:103D2000911DA11D6A0F711D811D911DA11D20D026
:103D300009F468943F912AE0269F11243019305DE0
:103D40003193DEF6CF010895462F4770405D4193D1
:103D5000B3E00FD0C9F7F6CF462F4F70405D4A331E
:103D600018F0495D31FD4052419302D0A9F7EACFE6
:103D7000B4E0A6959795879577956795BA95C9F715
:103D800000976105710508959B01AC010A2E069408
:103D90005795479537952795BA95C9F7620F731FC1
:0C3DA000841F951FA01D0895F894FFCF0C
:103DAC000000AE022000090000000000000000002E
:103DBC0000000000000000000000000000000000F7
:103DCC00000000000000616C6C6F636174696F6EC1
:103DDC00206F66206E206661696C656400616C6C96
:103DEC006F636174696F6E206F6620702066616905
:103DFC006C65640063727970746F5F7363616C617E
:103E0C00726D756C745F6261736500637279707446
:103E1C006F5F7363616C61726D756C740025303209
:103E2C007820005D200020737461636B20627974CC
:0C3E3C0065730A004552524F523A2000B4
:00000001FF
