:100000000C948E000C94AF000C94AF000C94AF00D5
:100010000C94AF000C94AF000C94AF000C94AF00A4
:100020000C94AF000C94AF000C94AF000C94AF0094
:100030000C94AF000C94AF000C94AF000C94AF0084
:100040000C94AF000C94AF000C94AF000C94AF0074
:100050000C94AF000C94AF000C94AF000C94AF0064
:100060000C94AF000C94AF000C94AF000C94AF0054
:100070000C94AF000C94AF000C94AF000C94AF0044
:100080000C94AF000C94AF000C94AF000C94AF0034
:100090000C94AF000C94AF000C94AF000C94AF0024
:1000A0000C94AF000C94AF000C94AF000C94AF0014
:1000B0000C94AF000C94AF000C94AF000C94AF0004
:1000C0000C94AF000C94AF000C94AF000C94AF00F4
:1000D0000C94AF000C94AF000C94AF000C94AF00E4
:1000E0000C94AF000C9485020C9458040C94FB16ED
:1000F0000C94F5020C94C6020C944F030C94B700B8
:100100000C94F0010C9487150C94AA140C94AE185E
:100110000C9439030C94F7140C943A0211241FBE6A
:10012000CFEFD1E2DEBFCDBF00E00CBF15E0A0E015
:10013000B2E0EEE4F6E400E00BBF02C007900D92DF
:10014000AE33B107D9F725E0AEE3B5E001C01D92AB
:10015000A839B207E1F70E94A8180C9425230C9443
:100160000000A0EEB0E0E7EBF0E00C94F91D6C01AC
:100170005B017A0180E2F601DE01119601900D9299
:100180008A95E1F7CE0181960E94B702CE018F5B7E
:100190009F4F0E94B10280E2F601DE01AF59BF4FCE
:1001A00001900D928A95E1F7CE018F579F4F0E94E3
:1001B000B7028FE1E80EF11C90E2792E26E0822E44
:1001C000912C01EA10E00C0F1D1F005E1F4F01C0B3
:1001D000962CF701208130E0082C02C03595279538
:1001E0000A94E2F7F22FF1706F2E9F26CE018F5501
:1001F0009F4F0E94B102492DBE016F5D7F4FCE011E
:100200008F559F4F0E94D502492DBE016F597F4FD8
:10021000CE0181960E94D502492DBE016F557F4FB8
:10022000CE018F599F4F0E94D502492DBE016F5BB1
:100230007F4FCE018F559F4F0E94D502492DBE01A1
:100240006F577F4FCE018F5B9F4F0E94D502492D84
:10025000BE016F557F4FCE018F579F4F0E94D50231
:10026000AE014F575F4FBE016F597F4FCE018F5583
:100270009F4F0E945F03AE014F575F4FBE016F5902
:100280007F4FCB010E94A407AE014F5B5F4FBE01C1
:100290006F5D7F4FCE018F579F4F0E945F03AE016E
:1002A0004F5B5F4FBE016F5D7F4FCB010E94A40784
:1002B000AE014F5D5F4FBE016F557F4FCB010E9476
:1002C0003303AE014F575F4FBE016F597F4FCB01D4
:1002D0000E943303BE016F577F4FCB010E94490339
:1002E000BE016F5D7F4FCB010E944903AE014F5DA0
:1002F0005F4FBE016F577F4FC8010E94A407B8012E
:10030000CE018F5B9F4F0E94E705AE014F5D5F4FAF
:10031000BE016F5B7F4FCB010E945F03AE014F5B5D
:100320005F4FB801CA010E943303AE014F5D5F4FBA
:10033000BE016F577F4FCA010E943303AE014F5970
:100340005F4FBE016F557F4FCE018F579F4F0E9469
:10035000A407BE016F577F4FCB010E944903AE0136
:100360004F5F5F4FBE016F577F4FCB010E9433033A
:10037000AE014F595F4FBE016F557F4FCA010E94BA
:100380005F03BE016F597F4FCB010E9449038A94DE
:1003900087FE1ECF7A9481E0E81AF108772021F0D9
:1003A00087E0882E962C15CF80E2FE01B196D6010B
:1003B00001900D928A95E1F780E2FE01EF5BFF4F1D
:1003C000D50101900D928A95E1F7C052DF4FEEE022
:1003D0000C94151EA0E6B0E0E0EFF1E00C94031ED3
:1003E0008C0180E2FB01DE01AF5BBF4F01900D92FB
:1003F0008A95E1F722968FAD2297887F22968FAF5C
:100400002297A1968FADA1978F778064A1968FAF29
:10041000A197BA01CE0181960E94E202AE014F5B24
:100420005F4FBE016F5F7F4FCE0181960E94B1008A
:10043000BE016F5F7F4FCB010E945204AE014F5F40
:100440005F4FBE016F5D7F4FCB010E943303BE0142
:100450006F5D7F4FC8010E94EF0280E090E0C05ABC
:10046000DF4FE4E00C941F1EA0E6B0E0EAE3F2E008
:100470000C94031E8C0180E2FB01DE01AF5BBF4FD9
:1004800001900D928A95E1F722968FAD2297887F91
:1004900022968FAF2297A1968FADA1978F77806418
:1004A000A1968FAFA1976AE272E0CE0181960E9479
:1004B000E202AE014F5B5F4FBE016F5F7F4FCE0127
:1004C00081960E94B100BE016F5F7F4FCB010E94F9
:1004D0005204AE014F5F5F4FBE016F5D7F4FCB0196
:1004E0000E943303BE016F5D7F4FC8010E94EF027F
:1004F00080E090E0C05ADF4FE4E00C941F1EA0E2C1
:10050000B0E0E5E8F2E00C94011E7C01BC01CE01F4
:1005100001960E94970881508E010F5D1F4FF701D1
:10052000DE0111962D913081232728232327219343
:10053000A017B107B9F7B701CE0101960E9497083D
:100540008150F701DE0111969D9120819227982319
:10055000922791930A171B07B9F7A096E6E00C942F
:100560001D1E20E2FC0111922A95E9F70895FC0175
:1005700081E081938FE1DF011D928A95E9F708956B
:10058000A0E2B0E0E6ECF2E00C94051EAB01BE0187
:100590006F5F7F4F20E2FB0111922A95E9F70E94DD
:1005A000A407A096E2E00C94211E4195DB01FC011A
:1005B00090E28D912081822784238227819391501C
:1005C000C1F70895DB01FC0120E03D9131932F5FDD
:1005D0002032D9F7FC01278D2F77278F0895A0E4CB
:1005E000B0E0E5EFF2E00C94011E8C0180E2FB012B
:1005F000DE01919601900D928A95E1F77E0181E2EC
:10060000E80EF11CB701CE0101960E9497088150B7
:10061000D701FE01319691912C9192279823922730
:100620009D93EE15FF05B9F7B701CE0101960E9423
:1006300097088150D701FE01319691912C91922714
:10064000982392279D93EE15FF05B9F780E2FE01EE
:10065000B196D80101900D928A95E1F7C05CDF4F09
:10066000E6E00C941D1EA0E4B0E0E9E3F3E00C9496
:10067000031E8C01CE0101960E94360DBE016F5FF4
:100680007F4FC8010E947206C05CDF4FE4E00C940B
:100690001F1EA0E4B0E0EFE4F3E00C94031E8C0115
:1006A000CE0101960E948212BE016F5F7F4FC8018A
:1006B0000E947206C05CDF4FE4E00C941F1EDB0159
:1006C000FC01CE01EA0136E24D915991450F41936B
:1006D0004D915991451F41934D915991451F41931A
:1006E0004D915991451F41934D915991451F41930A
:1006F0004D915991451F41934D915991451F4193FA
:100700004D915991451F41934D915991451F4193E9
:100710004D915991451F41934D915991451F4193D9
:100720004D915991451F41934D915991451F4193C9
:100730004D915991451F41934D915991451F4193B9
:100740004D915991451F41934D915991451F4193A9
:100750004D915991451F41934D915991451F419399
:100760004D915991451F41934D915991451F419389
:100770004D915991451F41934D915991451F419379
:100780004D915991451F41934D915991451F419369
:100790004D915991451F41934D915991451F419359
:1007A0004D915991451F41934D915991451F419349
:1007B0004D915991451F41934D915991451F419339
:1007C0004D915991451F41935527551FB097408131
:1007D000539F400D419355274081451F41934081D0
:1007E000451F41934081451F41934081451F4193DF
:1007F0004081451F41934081451F41934081451FE2
:1008000041934081451F41934081451F4193408161
:10081000451F41934081451F41934081451F4193AE
:100820004081451F41934081451F41934081451FB1
:1008300041934081451F41934081451F4193408131
:10084000451F41934081451F41934081451F41937E
:100850004081451F41934081451F41934081451F81
:1008600041934081451F41934081451F4193408101
:10087000451F41934081451F41934081451F41934E
:100880004081451F41934081451F41934081451F51
:100890004193551FB0974081539F400D4193EC0108
:1008A00011240895A0EEB0E0E8E5F4E00C94011EF8
:1008B0007C018B01CE018F539F4F0E944903BE01E3
:1008C0006F537F4FCE0101960E944903BE016F5FB7
:1008D0007F4FCE0181960E944903A801BE016F5D42
:1008E0007F4FCE018F579F4F0E943303AE014F536E
:1008F0005F4FBE016F577F4FCE018F559F4F0E94B4
:100900003303BE016F557F4FCE0181960E9449038C
:10091000AE014F575F4FBE016F5D7F4FCA010E940E
:100920003303BE016F577F4FCE0181960E9449036A
:10093000BE016F5D7F4FCE0101960E944903BE014B
:100940006F5F7F4FCE0181960E944903BE016F5DAC
:100950007F4FCE0101960E944903BE016F5F7F4F1A
:10096000CE0181960E944903AE014F575F4FBE01F1
:100970006F5D7F4FCA010E943303BE016F577F4FE7
:10098000CE0181960E944903BE016F5D7F4FCE016B
:1009900001960E94490314E0BE016F5F7F4FCE01B4
:1009A00081960E944903BE016F5D7F4FCE01019683
:1009B0000E944903115081F7AE014F575F4FBE01AE
:1009C0006F5F7F4FCE018F599F4F0E943303BE014F
:1009D0006F597F4FCE0181960E944903BE016F5D22
:1009E0007F4FCE0101960E94490319E0BE016F5F5F
:1009F0007F4FCE0181960E944903BE016F5D7F4FFC
:100A0000CE0101960E944903115081F7AE014F5962
:100A10005F4FBE016F5F7F4FCE0181960E9433030F
:100A2000BE016F5D7F4FCE0101960E944903BE015A
:100A30006F5F7F4FCE0181960E94490314E0BE0193
:100A40006F5D7F4FCE0101960E944903BE016F5F2B
:100A50007F4FCE0181960E944903115081F7AE016C
:100A60004F575F4FBE016F5D7F4FCE018F599F4F34
:100A70000E943303BE016F597F4FCE0181960E94C1
:100A80004903BE016F5D7F4FCE0101960E9449036D
:100A900018E1BE016F5F7F4FCE0181960E9449032E
:100AA000BE016F5D7F4FCE0101960E944903115038
:100AB00081F7AE014F595F4FBE016F5F7F4FCE018F
:100AC0008F5B9F4F0E943303BE016F5B7F4FCE0150
:100AD00001960E944903BE016F5F7F4FCE01819650
:100AE0000E94490311E3BE016F5D7F4FCE01019665
:100AF0000E944903BE016F5F7F4FCE0181960E9425
:100B00004903115081F7AE014F5B5F4FBE016F5D2E
:100B10007F4FCE0101960E943303BE016F5F7F4F6E
:100B2000CE0181960E944903BE016F5D7F4FCE01C9
:100B300001960E94490318E1BE016F5F7F4FCE010D
:100B400081960E944903BE016F5D7F4FCE010196E1
:100B50000E944903115081F7AE014F595F4FBE010A
:100B60006F5F7F4FCE0181960E943303BE016F5DA0
:100B70007F4FCE0101960E944903BE016F5F7F4FF8
:100B8000CE0181960E944903BE016F5D7F4FCE0169
:100B900001960E944903BE016F5F7F4FCE0181968F
:100BA0000E944903BE016F5D7F4FCE0101960E94F6
:100BB0004903AE014F555F4FBE016F5F7F4FC701C5
:100BC0000E943303C052DF4FE6E00C941D1E8F924B
:100BD000FC01DB01882422E43BED5D91259F01921D
:100BE000612D359F600D752F711D8827881F5D91C0
:100BF000259F600D711D881D6193359F700D811DAE
:100C0000850F6627681D99E05D91259F700D811DF8
:100C1000681D7193359F800D611D650F7727781DC5
:100C20005D91259F800D611D781D8193359F600D1D
:100C3000711D750F8827881D5D91259F600D711DA1
:100C4000881D6193359F700D811D850F6627681D76
:100C50009A95D1F65D91259F700D811D681D719348
:100C6000359F800D611D650F7727781D5D91259F4C
:100C7000800D611D781D8193359F600D711D750F6D
:100C80008827881D5D91259F600D711D881D359FEA
:100C9000700D811D850F262F3FE763236193662723
:100CA000681D220F771F881F661F23E1729F702D1A
:100CB000312D829F300D8827811D629F800DB09756
:100CC0002081270F21932081231F21932081281F1A
:100CD00021939DE12081281D21939A95D9F7112414
:100CE0008F900895222736E2DB01FC01CE01EB0153
:100CF0005F965C915F97A0966F8D639F500D121E5B
:100D0000550F111C5695578F33E1319D36E25D9199
:100D10007727500D711D6991639F500D711D51937F
:100D20005D916991639F570F7727711D500D721F59
:100D300051935D916991639F570F7727711D500DF6
:100D4000721F51935D916991639F570F7727711DB2
:100D5000500D721F51935D916991639F570F7727D3
:100D6000711D500D721F51935D916991639F570FD3
:100D70007727711D500D721F51935D916991639F8B
:100D8000570F7727711D500D721F51935D91699117
:100D9000639F570F7727711D500D721F51935D91FF
:100DA0006991639F570F7727711D500D721F5193E3
:100DB0005D916991639F570F7727711D500D721FC9
:100DC00051935D916991639F570F7727711D500D66
:100DD000721F51935D916991639F570F7727711D22
:100DE000500D721F51935D916991639F570F772743
:100DF000711D500D721F51935D916991639F570F43
:100E00007727711D500D721F51935D916991639FFA
:100E1000570F7727711D500D721F51935D91699186
:100E2000639F570F7727711D500D721F51935D916E
:100E30006991639F570F7727711D500D721F519352
:100E40005D916991639F570F7727711D500D721F38
:100E500051935D916991639F570F7727711D500DD5
:100E6000721F51935D916991639F570F7727711D91
:100E7000500D721F51935D916991639F570F7727B2
:100E8000711D500D721F51935D916991639F570FB2
:100E90007727711D500D721F51935D916991639F6A
:100EA000570F7727711D500D721F51935D916991F6
:100EB000639F570F7727711D500D721F51935D91DE
:100EC0006991639F570F7727711D500D721F5193C2
:100ED0005D916991639F570F7727711D500D721FA8
:100EE00051935D916991639F570F7727711D500D45
:100EF000721F51935D916991639F570F7727711D01
:100F0000500D721F51935D916991639F570F772721
:100F1000711D500D721F51935D916991639F570F21
:100F20007727711D500D721F51935D916991639FD9
:100F3000570F7727711D500D721F51935081570F16
:100F40005083EC0111240895DB01FC01CE01EA017C
:100F500036E24D915991451B41934D915991450B65
:100F600041934D915991450B41934D915991450BA9
:100F700041934D915991450B41934D915991450B99
:100F800041934D915991450B41934D915991450B89
:100F900041934D915991450B41934D915991450B79
:100FA00041934D915991450B41934D915991450B69
:100FB00041934D915991450B41934D915991450B59
:100FC00041934D915991450B41934D915991450B49
:100FD00041934D915991450B41934D915991450B39
:100FE00041934D915991450B41934D915991450B29
:100FF00041934D915991450B41934D915991450B19
:1010000041934D915991450B41934D915991450B08
:1010100041934D915991450B41934D915991450BF8
:1010200041934D915991450B41934D915991450BE8
:1010300041934D915991450B41934D915991450BD8
:1010400041934D915991450B41934D915991450BC8
:1010500041935527551FB0974081539F40194193A5
:1010600055274081450B41934081450B4193408179
:10107000450B41934081450B41934081450B419382
:101080004081450B41934081450B41934081450B85
:1010900041934081450B41934081450B41934081F1
:1010A000450B41934081450B41934081450B419352
:1010B0004081450B41934081450B41934081450B55
:1010C00041934081450B41934081450B41934081C1
:1010D000450B41934081450B41934081450B419322
:1010E0004081450B41934081450B41934081450B25
:1010F00041934081450B41934081450B4193408191
:10110000450B41934081450B41934081450B4193F1
:101110004081450B41934081450B4193551FB0974A
:101120004081539F40194193EC0111240895DB0144
:10113000FC015DEE4D91451B41935FEF4D91450BD9
:1011400041934D91450B41934D91450B41934D91E9
:10115000450B41934D91450B41934D91450B419367
:101160004D91450B41934D91450B41934D91450B4D
:1011700041934D91450B41934D91450B41934D91B9
:10118000450B41934D91450B41934D91450B419337
:101190004D91450B41934D91450B41934D91450B1D
:1011A00041934D91450B41934D91450B41934D9189
:1011B000450B41934D91450B41934D91450B419307
:1011C0004D91450B41934D91450B41934D91450BED
:1011D00041934D91450B41934D91450B41934D9159
:1011E000450B41934D91450B41934D91450B4193D7
:1011F0005FE74D91450B41938827881F0895442749
:1012000055278A01289C6001269C5001279CB00C20
:10121000C11CD51E399C7001299C9001369CB00CD4
:10122000C11CD21E351F379CC00CD11C351F499CD8
:10123000E30EF01C011D489C9001469CC00CD11C83
:10124000E21E351F389CD00CE11C351F599CF30E53
:10125000001D111D579C9001479CD00C211D351F6E
:10126000569CD00C211D351F589CE20E031E151EE6
:10127000F00C011D151FA082B182C282D3825A01D7
:101280002D913D914D916C817D818E819F81269F15
:10129000E00CF11C051FB51E279FF00C011DB51EAB
:1012A000369FF00C011D1B1DA51E289F000D111D52
:1012B000A51E379F000D111DA51E469F000D111D77
:1012C000A51EBB24299F100DA11CB51E389F100D13
:1012D000A11CB51E479F100DA11CB51E221A330A72
:1012E000440A2D91520A0008661A770A880A990A58
:1012F00011082024302440245024612471248124A6
:10130000912401941194200C351E451E551E610C2C
:10131000751E851E951E012400FA269F100DA11C26
:10132000B51E399F3327A00CB11C351F489FA00C58
:10133000B11C351F279FA00CB11C351F499F4427A6
:10134000B00C311D451F289FB00C311D451F299F32
:10135000300D411D882799272227269CB001279C04
:10136000700D811D369C700D811D951F289C800D70
:10137000911D251F379C800D911D251F469C800DBA
:10138000911D251F299C2224900D211D251E389C6E
:10139000900D211D251E479C900D211D251E569C3C
:1013A000900D211D251E399C3324200D211C351E36
:1013B000489C200D211C351E579C200D211C351EDC
:1013C000499C4424200C311C451E589C200C311C87
:1013D000451E599C300C411C608071806E0C7F1C36
:1013E000C01ED11EEA1CFB1C031F141F882480F89A
:1013F0008A94581D052E05946825782588259825FA
:101400002825282438244824880C661E771EC81EE8
:10141000D91EE21EF21C031D141DA51EB01C301D9A
:10142000401D64827582C682D782B701C8012A2D09
:101430005B2DCC24DD24760186012D903D904D90CE
:101440005D90688479848A849B84269C5001279CC3
:10145000B00CC11C369CB00CC11CD11E289CC00C09
:10146000D11CE11E379CC00CD11CE11E469CC00C57
:10147000D11CE11E299CD00CE11CF11E389CD00C23
:10148000E11CF11E479CD00CE11CF11E569CD00CB7
:10149000E11CF11E6A0D608B7B1D718B8C1D828B94
:1014A0009D1D938BA21EA48AB51EB58AC31ED41E91
:1014B00000080F9244275527399CE00CF11C051FAA
:1014C000489CE00CF11C051F579CE00CF11C051F0B
:1014D000499CF00C011D151F589CF00C011D151F97
:1014E000599C000D111D5A012D913D914D916C8516
:1014F0007D858E859F85269FE00CF11C051FB51EFE
:10150000279FF00C011DB51E369FF00C011D1B1D01
:10151000A51E289F000D111DA51E379F000D111D32
:10152000A51E469F000D111DA51EBB24299F100D51
:10153000A11CB51E389F100DA11CB51E479F100D94
:10154000A11CB51E221A330A440A2D91520A000822
:10155000661A770A880A990A110820243024402440
:101560005024612471248124912401941194200C2D
:10157000351E451E551E610C751E851E951E0124C7
:1015800000FA269F100DA11CB51E399F3327A00C11
:10159000B11C351F489FA00CB11C351F279FA00C04
:1015A000B11C351F499F4427B00C311D451F289F92
:1015B000B00C311D451F299F300D411D88279927EB
:1015C0002227269CB001279C700D811D369C700D32
:1015D000811D951F289C800D911D251F379C800D16
:1015E000911D251F469C800D911D251F299C22249D
:1015F000900D211D251E389C900D211D251E479CF8
:10160000900D211D251E569C900D211D251E399CD7
:101610003324200D211C351E489C200D211C351E15
:10162000579C200D211C351E499C4424200C311C44
:10163000451E589C200C311C451E599C300C411CE9
:10164000648875886E0C7F1CC01ED11EEA1CFB1CB2
:10165000031F141F551F0F900194E00C0024F01C71
:10166000001D101D882480F88A94581D052E0594AD
:101670006825782588259825282528243824482475
:10168000880C661E771EC81ED91EE21EF21C031DA2
:10169000141DA51EB01C301D401D648A758AC68AA3
:1016A000D78AE08EF18E028F138FA48EB58E368F7F
:1016B000478F50972D903D904D905D902D913D918D
:1016C0004D915D91AD90BD90CD90DD90ED90FD90F0
:1016D0000D911D91AF93BF93CF93DF932A183B08D1
:1016E0004C085D082E093F09400B510B000868802B
:1016F00079808A809B806C817D818E819F81A88486
:10170000B984CA84DB84EC84FD840E851F856A1845
:101710007B088C089D086E097F09800B910B1108CE
:1017200020243024402450242025302540255025D5
:1017300061247124812491246125712581259125BD
:1017400001941194AA27BB27200C3A1E4A1E5A1E48
:101750002A1F3A1F4A1F5A1F610C7A1E8A1E9A1EA0
:101760006A1F7A1F8A1F9A1F01240F928D01289CDD
:101770006001269C5001279CB00CC11CDA1E399CCC
:101780007001299CE001369CB00CC11CDC1EDA1FE4
:10179000379CC00CD11CDA1F499CED0EF01C011DBA
:1017A000489CE001469CC00CD11CEC1EDA1F389C02
:1017B000D00CE11CDA1F599CFD0E001D111D579C19
:1017C000E001479CD00CC11DDA1F569CD00CC11DF6
:1017D000DA1F589CEC0E0D1E1A1EF00C011D1A1F6C
:1017E000221A330A440A550A0008661A770A880A38
:1017F000990A1108202430244024502461247124A3
:101800008124912401941194200C3A1E4A1E5A1EE0
:10181000610C7A1E8A1E9A1E012400FA289FE0019C
:10182000269FE00CF11C0C1FDA1F279FF00C011DF6
:10183000DA1F399F1D0FA01DB11D299FE001369FA2
:10184000F00C011D1C1F2227D21F379F000D111DF8
:10185000D21F499FAD0FB01D2227211D489FE001D7
:10186000469F000D111DAC1F0024D01D389F100D88
:10187000A11D3327D31F599FBD0F201D9927911DEF
:10188000579FE001479F100DC11DD31F569F100D9C
:10189000C11DD31F589FAC0F0D1E131EB00D211D6F
:1018A000931F289CB001269CA001279C500D611D10
:1018B000731F399C802D022C212C099CE001369C41
:1018C000500D611D7C1FD31F379C600D711DD31FF0
:1018D000499C8D0F201C311D489CE001469C600DE9
:1018E000711D8C1F0024D01D389C700D811D332468
:1018F000D31D599C2D0E301D9924911C579CE0013D
:10190000479C700DC11DD31D569C700DC11DD31D6C
:10191000589C8C0F0D1E131C200C311D931C25018F
:101920003601AE0CBF1CC01ED11EEA1EFB1E021FDC
:10193000191F002400F80A94301C132C159440251C
:101940005025602570258025202430259024000C0A
:10195000A41EB51EC61ED71EE81EF21C031F191DAD
:10196000A31DB11D211D911D392F4081518162811F
:10197000738184819581868097800F900A94102CC2
:1019800015944024502460247024A024B024C02442
:10199000D024E024F02400251025A025B025202502
:1019A0003025C02DCC0F441D551D661D771D8A1D89
:1019B0009B1D8C1C9D1CCC27CC1F20883188420D80
:1019C000531D40875187A10122883388621D731DF2
:1019D00062877387B10124883588821D931D8487AF
:1019E0009587C10126883788821C931C8686978636
:1019F00041012224221CC6954E1D5F1D601F711FD0
:101A00008A1F9B1F821E931E0C1E1C1E408C518C15
:101A1000628C738CA48CB58CC68CD78C2694441D98
:101A2000551D661D771D8A1D9B1D8C1C9D1C021C4F
:101A3000121C408B518B628B738B848B958B868AA7
:101A4000978A400C511C611C711CA11CB11CC11C4B
:101A5000D11C408E518E628E738EA48EB58EC68E32
:101A6000D78EDF91CF91BF91AF9108952F923F9282
:101A70004F925F926F927F928F929F92AF92BF929E
:101A8000CF92DF92EF92FF920F931F93CF93DF934A
:101A9000FC01EA01DB012D903D904D905D90688046
:101AA00079808A809B80ABDB6096B0962D903D90CC
:101AB0004D905D90688079808A809B80A0DB6097E4
:101AC000B097008810A0010C00A2018811A0011C91
:101AD00001A2028812A0011C02A2038813A0011C0B
:101AE00003A2048814A0011C04A2058815A0011CEF
:101AF00005A2068816A0011C06A2078817A0011CD3
:101B000007A2008C10A4011C00A6018C11A4011CCA
:101B100001A6028C12A4011C02A6038C13A4011CB2
:101B200003A6048C14A4011C04A6058C15A4011C96
:101B300005A6068C16A4011C06A6078C17A4011C7A
:101B400007A6002410A8101C10AA11A8101C11AA86
:101B500012A8101C12AA13A8101C13AA14A8101C57
:101B600014AA15A8101C15AA16A8101C16AA17A8A6
:101B7000101C17AA10AC101C10AE11AC101C11AE2A
:101B800012AC101C12AE13AC101C13AE14AC101C13
:101B900014AE15AC101C15AE16AC101C16AE17AC5E
:101BA000101C17AE90972D903D904D905D902D910B
:101BB0003D914D915D91AD90BD90CD90DD90ED90BA
:101BC000FD900D911D910D9020180D9030080D90F5
:101BD00040080D9050080D9020090D9030090D908F
:101BE00040090D9050090D90A0080D90B0080D907F
:101BF000C0080D90D0080D90E0080D90F0080D90F1
:101C000000090C901009000820243024402450249E
:101C10002025302540255025A024B024C024D024E0
:101C2000E024F0240025102501946627200C361EA0
:101C3000461E561E261F361F461F561FA61EB61EC0
:101C4000C61ED61EE61EF61E061F161FADB7BEB771
:101C500019971E930E93FE92EE92DE92CE92BE9252
:101C6000AE925E934E933E932E935E924E923E9230
:101C70002E92688079808A809B806C817D818E81A4
:101C80009F81A884B984CA84DB84EC84FD840E859A
:101C90001F8518886118198871081A8881081B889F
:101CA00091081C8861091D8871091E8881091F8897
:101CB0009109188CA108198CB1081A8CC1081B8CC9
:101CC000D1081C8CE1081D8CF1081E8C01091F8CA9
:101CD0001109110861247124812491246125712541
:101CE00081259125A124B124C124D124E124F1240A
:101CF000012511251194CC27610C7C1E8C1E9C1E85
:101D00006C1F7C1F8C1F9C1FAC1EBC1ECC1EDC1EBF
:101D1000EC1EFC1E0C1F1C1F1E930E93FE92EE92D7
:101D2000DE92CE92BE92AE929E938E937E936E93EF
:101D30009E928E927E926E9201240F92EF93FF9369
:101D4000FD01B097ED0154965ADADF91CF910880EA
:101D500019802A803B804C805D806E807F808884E3
:101D60009984AA84BB84CC84DD84EE84FF844F9163
:101D7000442311F50081001A0181100A0281200A12
:101D80000381300A0481400A0581500A0681600AF5
:101D90000781700A0085800A0185900A0285A00AE1
:101DA0000385B00A0485C00A0585D00A0685E00AC5
:101DB0000785F00A000B22C00081000E0181101E71
:101DC0000281201E0381301E0481401E0581501EA9
:101DD0000681601E0781701E0085801E0185901E91
:101DE0000285A01E0385B01E0485C01E0585D01E79
:101DF0000685E01E0785F01E0027001F18A1010EB2
:101E0000088A09A0101C198A1AA0211C2A8A2BA052
:101E1000321C3B8A3CA0431C4C8A4DA0541C5D8A5A
:101E20005EA0651C6E8A6FA0761C7F8A78A4871CD2
:101E3000888E89A4981C998E9AA4A91CAA8EABA4FA
:101E4000BA1CBB8EBCA4CB1CCC8ECDA4DC1CDD8EFE
:101E5000DEA4ED1CEE8EEFA4FE1CFF8E2227221FB7
:101E6000442321F506950089100B0189000A028997
:101E7000100A0389200A0489300A0589400A068964
:101E8000500A0789600A008D700A018D800A028D50
:101E9000900A038DA00A048DB00A058DC00A068D34
:101EA000D00A078DE00AAA0BBB0B24C00695008957
:101EB000101F0189001E0289101E0389201E04893B
:101EC000301E0589401E0689501E0789601E008D40
:101ED000701E018D801E028D901E038DA01E048D2C
:101EE000B01E058DC01E068DD01E078DE01EAA27D0
:101EF000BB27AA1F269538A9131F18A319A9011ECD
:101F000009A20AA8101C1AA21BA8211C2BA22CA8EB
:101F1000321C3CA23DA8431C4DA24EA8541C5EA2FC
:101F20005FA8651C6FA268AC761C78A679AC871C8C
:101F300089A68AAC981C9AA69BACA91CABA6ACAC93
:101F4000BA1CBCA6BDACCB1CCDA6CEACDC1CDEA6A0
:101F5000DFACED1CEFA6A21FB21F3A0F1B1F0B1E1A
:101F60001B1E2B1E3B1E4B1E5B1E6B1E7B1E8B1EE9
:101F70009B1EAB1EBB1ECB1EDB1E38AB19AB0AAAC9
:101F80001BAA2CAA3DAA4EAA5FAA68AE79AE8AAE59
:101F90009BAEACAEBDAECEAEDFAE1124DF91CF9125
:101FA0001F910F91FF90EF90DF90CF90BF90AF9077
:101FB0009F908F907F906F905F904F903F902F9069
:101FC0000895AA27BB27CF93DF93239C50016D016F
:101FD000249CB00CC11C7D01259CC00CD11C349CE0
:101FE000C00CD11CEA1E269CD00CE11C359CD00CE8
:101FF000E11CFA1E8D01279CE00CF11C0A1F369C87
:10200000E00CF11C0A1F459CE00CF11C0A1F289CE7
:10201000F00C011D1A1F379CF00C011D1A1F469C65
:10202000F00C011D1A1F9D01299C000D111D2A1F76
:10203000389C000D111D2A1F479C000D111D2A1FE1
:10204000569C000D111D2A1FAA1CBB1CCC1CDD1C9C
:10205000EE1CFF1C001F990B229C0082212C339C3C
:10206000A001449CB001559CA20CA182B41EB28276
:10207000C51EC382D61ED482E71EE582F01CF682FE
:10208000011D07839A0B399C100D211D3A1F489C96
:10209000100D211D3A1F579C100D211D3A1FAD0137
:1020A000499C200D311D4A1F589C200D311D4A1F8F
:1020B000679C200D311D4A1F599C300D411D5A1F30
:1020C000689C300D411D5A1FBD01699C400D511D7A
:1020D0006A1F789C400D511D6A1F799C500D611D2F
:1020E0007A1F8827899C600D711D8A1F111F221F6E
:1020F000331F441F551F661F771F881F669C9195CD
:10210000090E1A1E5001779C6001889C7001999CF1
:1021100010011A0D2B1D3C1D4D1D5E1D6F1D721DE6
:10212000831D288439844A845B846C847D848E84F6
:102130009F84239C50016D01249CB00CC11C7D0127
:10214000259CC00CD11C349CC00CD11CEA1E269CC2
:10215000D00CE11C359CD00CE11CFA1E0A2F279CE8
:10216000E00CF11C0A1F369CE00CF11C0A1F459C78
:10217000E00CF11C0A1F289CF00C011DAB1F379CC2
:10218000F00C011DAB1F469CF00C011DAB1F299CE0
:10219000000DA11DBB0B389C000DA11DB040479C3C
:1021A000000DA11DB040569C000DA11DB040B19581
:1021B000AA0CBB1CCC1CDD1CEE1CFF1C001F990BC9
:1021C000A20EB31EC41ED51EE61EF71E081F9040A9
:1021D000229C9001339CA001449CB001559C210F8E
:1021E000208BA31EA18AB41EB28AC51EC38AD61E26
:1021F000D48AE71EE58AF01CF68A011D078B904001
:1022000011273327399CA00DB11D311F489CA00D0B
:10221000B11D311F579CA00DB11D311F412F499C8D
:10222000B00D311D411F589CB00D311D411F679CE1
:10223000B00D311D411F512F599C300D411D511FB3
:10224000689C300D411D511F612F699C400D511D2F
:10225000611F789C400D511D611F712F799C500D9D
:10226000611D711F8827899C600D711D811FAA1F28
:10227000BB1F331F441F551F661F771F881F669C97
:102280009195090E111E5001779C6001889C700188
:10229000999CAA0DA08FBB1DB18F3C1D328F4D1D87
:1022A000438F5E1D548F6F1D658F701D768F811D4E
:1022B000878FA880B980CA80DB80EC80FD800E818A
:1022C0001F812A183B084C085D086E087F08800AA9
:1022D000910ABB27AA0B2A263A264A265A266A269C
:1022E0007A268A269A26A1952A0E3B1E4B1E5B1E35
:1022F0006B1E7B1E8B1E9B1EAA27239C50016D010B
:10230000249CB00CC11C7D01259CC00CD11C349CAC
:10231000C00CD11CEA1E269CD00CE11C359CD00CB4
:10232000E11CFA1E8D01279CE00CF11C0A1F369C53
:10233000E00CF11C0A1F459CE00CF11C0A1F289CB4
:10234000F00C011D1A1F379CF00C011D1A1F469C32
:10235000F00C011D1A1F9D01299C000D111D2A1F43
:10236000389C000D111D2A1F479C000D111D2A1FAE
:10237000569C000D111D2A1FAA1CBB1CCC1CDD1C69
:10238000EE1CFF1C001F990B229CE001339CA00156
:10239000449CB001559CAD0EB41EC51ED61EE71E52
:1023A000F01C011D9A0B399C100D211D3A1F489CF1
:1023B000100D211D3A1F579C100D211D3A1FAD0114
:1023C000499C200D311D4A1F589C200D311D4A1F6C
:1023D000679C200D311D4A1F599C300D411D5A1F0D
:1023E000689C300D411D5A1FBD01699C400D511D57
:1023F0006A1F789C400D511D6A1F799C500D611D0C
:102400007A1F8827899C600D711D8A1F111F221F4A
:10241000331F441F551F661F771F881F669C9195A9
:10242000090E1A1E1001779C2001889C3001999C8E
:10243000120D231D341D451D561D671D701D811D68
:102440002088318842885388648875888688978870
:10245000C219A308B408C508D608E708F80809098E
:102460000008D081DC1BD087D181DA09D187D281E5
:10247000DB09D287D381DC09D387D481DD09D487F6
:10248000D581DE09D587D681DF09D687D781D00BE4
:10249000D787210A320A430A540A650A760A870A4C
:1024A000980AAA0BA08CB18CC28CD38CE48CF58CCE
:1024B000068D178D000C2A1C3B1C4C1C5D1C6E1CD1
:1024C0007F1C801E911E208A318A428A538A648A28
:1024D000758A868A978A2227A21FBA2FB595AA0ED7
:1024E000BB1ECB1EDB1EEB1EFB1E0B1F1B1FA08E7D
:1024F000B18EC28ED38EE48EF58E068F178FDF914C
:10250000CF9108952F923F924F925F926F927F9258
:102510008F929F92AF92BF92CF92DF92EF92FF92F3
:102520000F931F93CF93DF93FC01EB012880398039
:102530004A805B806C807D808E809F8042DD6096CB
:10254000B096288039804A805B806C807D808E8048
:102550009F8037DD6097B097008810A0010C00A223
:10256000018811A0011C01A2028812A0011C02A274
:10257000038813A0011C03A2048814A0011C04A258
:10258000058815A0011C05A2068816A0011C06A23C
:10259000078817A0011C07A2008C10A4011C00A62C
:1025A000018C11A4011C01A6028C12A4011C02A61C
:1025B000038C13A4011C03A6048C14A4011C04A600
:1025C000058C15A4011C05A6068C16A4011C06A6E4
:1025D000078C17A4011C07A60024201C20AA301C6D
:1025E00031AA401C42AA501C53AA601C64AA701C49
:1025F00075AA801C86AA901C97AAA01CA0AEB01C2D
:10260000B1AEC01CC2AED01CD3AEE01CE4AEF01C18
:10261000F5AE001D06AF101D17AF288039804A8027
:102620005B806C807D808E809F80A884B984CA8402
:10263000DB84EC84FD840E851F85088820180988BA
:1026400030080A8840080B8850080C8860080D88FC
:1026500070080E8880080F889008088CA008098CE4
:10266000B0080A8CC0080B8CD0080C8CE0080D8CCC
:10267000F0080E8C00090F8C10090008202430246B
:10268000402450246024702480249024A024B0246A
:10269000C024D024E024F0240025102501946627CE
:1026A000200C361E461E561E661E761E861E961E62
:1026B000A61EB61EC61ED61EE61EF61E061F161F38
:1026C000CDB7DEB727971A930A93FA92EA92DA9275
:1026D000CA92BA92AA929A928A927A926A925A92DA
:1026E0004A923A922A92EF93FF93FE01B09769DCE7
:1026F000DF91CF91088019802A803B804C805D80DB
:102700006E807F8088849984AA84BB84CC84DD8495
:10271000EE84FF840081001A0181100A0281200AE0
:102720000381300A0481400A0581500A0681600A4B
:102730000781700A0085800A0185900A0285A00A37
:102740000385B00A0485C00A0585D00A0685E00A1B
:102750000785F00A000B18A1010E088A09A0101CB9
:10276000198A1AA0211C2A8A2BA0321C3B8A3CA061
:10277000431C4C8A4DA0541C5D8A5EA0651C6E8A69
:102780006FA0761C7F8A78A4871C888E89A4981CE9
:10279000998E9AA4A91CAA8EABA4BA1CBB8EBCA409
:1027A000CB1CCC8ECDA4DC1CDD8EDEA4ED1CEE8E0D
:1027B000EFA4FE1CFF8E2227221F06950089100B16
:1027C0000189000A0289100A0389200A0489300A53
:1027D0000589400A0689500A0789600A008D700A37
:1027E000018D800A028D900A038DA00A048DB00A23
:1027F000058DC00A068DD00A078DE00AAA0BBB0B17
:10280000269538A9131F18A319A9011E09A20AA801
:10281000101C1AA21BA8211C2BA22CA8321C3CA203
:102820003DA8431C4DA24EA8541C5EA25FA8651C87
:102830006FA268AC761C78A679AC871C89A68AAC96
:10284000981C9AA69BACA91CABA6ACACBA1CBCA6A7
:10285000BDACCB1CCDA6CEACDC1CDEA6DFACED1C2B
:10286000EFA6A21FB21F3A0F1B1F0B1E1B1E2B1E13
:102870003B1E4B1E5B1E6B1E7B1E8B1E9B1EAB1ED0
:10288000BB1ECB1EDB1E38AB19AB0AAA1BAA2CAA97
:102890003DAA4EAA5FAA68AE79AE8AAE9BAEACAE38
:1028A000BDAECEAEDFAE1124DF91CF911F910F915F
:1028B000FF90EF90DF90CF90BF90AF909F908F9060
:1028C0007F906F905F904F903F902F90089510925F
:1028D000C50089E18093C40088E18093C100089518
:1028E0009091930591110BC01092C50099E19093BE
:1028F000C40098E19093C10091E09093930590916A
:10290000C00095FFFCCF8093C6000895FC01208194
:102910002223C9F0319649E138E191E08091930595
:10292000811108C01092C5004093C4003093C100CB
:10293000909393058091C00085FFFCCF2093C60043
:1029400021912111EBCF0895A4E0B0E0EAEAF4E18F
:102950000C94FA1D6115710509F43FC08C015C01EE
:10296000A60EB71ECE0101966C018FE1E82E85E020
:10297000F82E99E1792E28E1822E99249394F8017A
:1029800081918F011F928F93FF92EF92DF92CF92EE
:102990000E94F21F99810F900F900F900F900F904F
:1029A0000F909923B9F0FE01329680919305811121
:1029B00008C01092C5007092C4008092C10090922D
:1029C00093058091C00085FFFCCF9093C600919144
:1029D0009111EBCF0A151B0591F62496EDE00C94AE
:1029E000161EACE1B0E0E7EFF4E10C94F51D922E79
:1029F000832E742E652E562E472E382E292E188E95
:102A0000A0E00E94411E09F463C0CE0148969C8F4D
:102A10008B8FE6E1F0E0FA8FE98F3AE0A32EB12C3C
:102A2000C12CD12CE12CF12C00E010E0292D382D07
:102A3000472D562D652D742D832D922D0E94961DA8
:102A4000205DEB8DFC8D2293FC8FEB8F898D9A8D11
:102A500001979A8F898F292D382D472D562D652D59
:102A6000742D832D922D0E94981D922E832E742EEC
:102A7000652E562E472E382E292EA0E00E94411E8C
:102A800061F6898D9A8D0196FE013196E80FF91F46
:102A900090819923C9F0319649E138E121E0809194
:102AA0009305811108C01092C5004093C400309373
:102AB000C100209393058091C00085FFFCCF9093C7
:102AC000C60091919111EBCF6C96E2E10C94111E2E
:102AD0008091930581110BC01092C50089E180930C
:102AE000C40088E18093C10081E0809393058091C8
:102AF000C00085FFFCCF80E38093C60087E190E0B3
:102B0000C3CFA2E2B0E0E7E8F5E10C94F51D3A018D
:102B10002901FC0120812223D1F0FC01319649E1F9
:102B200038E191E080919305811108C01092C500B1
:102B30004093C4003093C100909393058091C000EE
:102B400085FFFCCF2093C60021912111EBCFECE350
:102B5000F5E09AE349E138E121E0809193058111A4
:102B600008C01092C5004093C4003093C100209368
:102B700093058091C00085FFFCCF9093C600919192
:102B80009111EBCF6F3FFFEF7F0709F0EDC0C2015E
:102B900001979AA389A36D8E7E8E18A21F8E9C0129
:102BA000EF8DF8A1E217F30708F0ABC09F012F5F8C
:102BB0003F4F38A32F8FED8DFE8D2085CF010896D6
:102BC0009E8F8D8F31854285538564857585868579
:102BD0009785A080B180C280D380E480F580068193
:102BE00017810E94381E922E832E742E652E562E2B
:102BF000472E382E292E188EA0E00E94411E09F47F
:102C00009AC0CE0148969C8F8B8FE6E1F0E0FA8F58
:102C1000E98F4AE0A42EB12CC12CD12CE12CF12C4F
:102C200000E010E0292D382D472D562D652D742DEF
:102C3000832D922D0E94961D205DEB8DFC8D22939D
:102C4000FC8FEB8F298D3A8D215031093A8F298FD6
:102C5000292D382D472D562D652D742D832D922D20
:102C60000E94981D922E832E742E652E562E472E6E
:102C7000382E292EA0E00E94411E59F6E98DFA8DCA
:102C8000319681E090E08C0F9D1FE80FF91F908135
:102C90009923C9F031968091930581110BC0109250
:102CA000C50029E12093C40038E13093C10081E0E0
:102CB000809393058091C00085FFFCCF9093C60060
:102CC00091919111E8CF8091930581110BC01092E1
:102CD000C50099E19093C400E8E1E093C100F1E000
:102CE000F09393058091C00085FFFCCF20E22093F4
:102CF000C60029A13AA1EF8DF8A1E217F30708F465
:102D000055CF8091930581110BC01092C50089E1C8
:102D10008093C40088E18093C10081E08093930593
:102D20008091C00085FFFCCF8AE08093C600A29608
:102D3000E2E10C94111E8091930581110BC0109259
:102D4000C50099E19093C400E8E1E093C100F1E08F
:102D5000F09393058091C00085FFFCCF20E3209382
:102D6000C600E7E1F0E08DCF8091930581110BC0A3
:102D70001092C50089E18093C40088E18093C1006E
:102D800081E0809393058091C00085FFFCCF8BE5A7
:102D90008093C6004B01A12CB12CC12CD12C760103
:102DA0009B0140E050E060E070E080E090E00E9435
:102DB000F114E6E2F5E09DE549E138E121E080919A
:102DC0009305811108C01092C5004093C400309350
:102DD000C100209393058091C00085FFFCCF9093A4
:102DE000C60091919111EBCFD2CEA0E2B0E0EBEF13
:102DF000F6E10C94F51D58A34F8FFC01208122238E
:102E0000D1F0FC01319649E138E191E080919305E0
:102E1000811108C01092C5004093C4003093C100D6
:102E2000909393058091C00085FFFCCF2093C6004E
:102E300021912111EBCFECE3F5E09AE349E138E190
:102E400021E080919305811108C01092C500409344
:102E5000C4003093C100209393058091C00085FF8A
:102E6000FCCF9093C60091919111EBCF6F3FFFEF94
:102E70007F0709F452C18091930581110BC0109214
:102E8000C50089E18093C40088E18093C10081E09E
:102E9000809393058091C00085FFFCCF8BE58093E4
:102EA000C6001B01412C512C612C712C4301188E42
:102EB0009B0140E050E060E070E080E090E0A0E046
:102EC0000E94411E09F410C1CE0148969C8F8B8F41
:102ED000E6E1F0E0FA8FE98F6AE0A62EB12CC12C72
:102EE000D12CE12CF12C00E010E09101A201B30102
:102EF000C4010E94961D205DEB8DFC8D2293FC8FFA
:102F0000EB8F898D9A8D01979A8F898F9101A201FC
:102F1000B301C4010E94981D19012A013B014C0113
:102F2000A0E00E94411EC1F6E98DFA8D3196CE01D6
:102F300001969E8F8D8FE80FF91F90819923C9F01C
:102F4000319649E138E121E080919305811108C073
:102F50001092C5004093C4003093C10020939305A4
:102F60008091C00085FFFCCF9093C6009191911194
:102F7000EBCFE6E2F5E09DE549E138E121E0809123
:102F80009305811108C01092C5004093C40030938E
:102F9000C100209393058091C00085FFFCCF9093E2
:102FA000C60091919111EBCFEF8DF8A11F01412C3B
:102FB000512C612C712C4301188E9F0140E050E090
:102FC00060E070E080E090E0A0E00E94411E09F423
:102FD00072C0FE017896FC8FEB8F86E190E09A8FAD
:102FE000898F5AE0A52EB12CC12CD12CE12CF12CCB
:102FF00000E010E09101A201B301C4010E94961DFE
:10300000205DEB8DFC8D2293FC8FEB8F898D9A8D4B
:1030100001979A8F898F9101A201B301C4010E9487
:10302000981D19012A013B014C01A0E00E94411E9C
:10303000C1F6E98DFA8D31968D8D9E8DE80FF91FC1
:1030400090819923C9F0319649E138E121E08091DE
:103050009305811108C01092C5004093C4003093BD
:10306000C100209393058091C00085FFFCCF909311
:10307000C60091919111EBCFE9E2F5E090E249E1D0
:1030800038E121E080919305811108C01092C500BC
:103090004093C4003093C100209393058091C000F9
:1030A00085FFFCCF9093C60091919111EBCFA09634
:1030B000E2E10C94111E8091930581110BC01092D6
:1030C000C50089E18093C40088E18093C10081E05C
:1030D000809393058091C00085FFFCCF80E38093AF
:1030E000C600E7E1F0E0A8CF8091930581110BC005
:1030F0001092C50089E18093C40088E18093C100EB
:1031000081E0809393058091C00085FFFCCF80E330
:103110008093C600E7E1F0E00ACFCE0101969E8FD2
:103120008D8F42CF84E00E947014FFCFEC0186E3C4
:1031300095E00E948614CE010E94861484E395E0F7
:103140000E9486140E9492188FEF9FEF0E94252301
:10315000A0E0B0E0EEEAF8E10C94F51D61E070E06B
:1031600080E490E00E944D1E90939205809391051B
:10317000892B09F4AEC461E070E080E490E00E9425
:103180004D1E9093900580938F05892B09F4A6C45A
:1031900061E070E080E490E00E944D1E90938E0507
:1031A00080938D05892B09F49EC461E070E080E472
:1031B00090E00E944D1E90938C0580938B05892B87
:1031C00009F496C461E070E080E490E00E944D1E36
:1031D00090938A0580938905892B09F48EC461E058
:1031E00070E080E690E00E944D1E909388058093E9
:1031F0008705892B09F486C461E070E080E690E0E1
:103200000E944D1E9093860580938505892B09F4B5
:103210007EC461E070E080E690E00E944D1E9093D5
:10322000840580938305892B09F476C461E070E0FE
:1032300080E690E00E944D1E909382058093810568
:10324000892B09F46EC461E070E080E690E00E9492
:103250004D1E9093800580937F05009709F430C43C
:10326000AC01E0919105F09192057096F093920572
:10327000E0939105C0918F05D09190056096D09311
:103280009005C0938F0500918D0510918E05005F0C
:103290001F4F10938E0500938D05A0918B05B09163
:1032A0008C055096B0938C05A0938B058091890571
:1032B00090918A05409690938A0580938905209184
:1032C000870530918805205F3F4F30938805209314
:1032D00087052091850530918605205F3F4F30930B
:1032E0008605209385052091830530918405205F14
:1032F0003F4F3093840520938305209181053091C1
:103300008205205F3F4F30938205209381059A010B
:10331000205F3F4F3093800520937F0520E021936D
:103320002F5F2032E1F721E029932F5F2132E1F76F
:10333000E80122E029932F5F2232E1F723E02D9369
:103340002F5F2332E1F7FC0184E081938F5F8432A9
:10335000E1F7C0EFDFEF04C000918D0510918E05FD
:103360000C0F1D1F0E94DE1FD8016C932196A1F740
:10337000C0EFDFEF00918F05109190050C0F1D1F1E
:103380000E94DE1FF80160832196A1F7C0E2D0E021
:1033900000918D0510918E050C0F1D1F0E94DE1FE0
:1033A000D8016C932196C033D10591F7C0E2D0E0EB
:1033B00000918F05109190050C0F1D1F0E94DE1FBC
:1033C000F80160832196C033D10591F780918D0576
:1033D00090918E05DC015097E0918305F091840572
:1033E000709720E030E04D9141932F5F3F4F2034A4
:1033F0003105C9F760918F0570919005DB015097F9
:10340000E0918505F0918605709720E030E04D91C0
:1034100041932F5F3F4F20343105C9F70E9434029A
:10342000892B09F048C3C0EFDFEFA0918505B0916B
:103430008605AC0FBD1FE0918F05F0919005EC0F54
:10344000FD1F9C918081981721F08CE593E00E94EC
:1034500096182196C033D10541F72091830530910C
:10346000840580918D0590918E05C0EFDFEFF90105
:10347000EC0FFD1F5081FC01EC0FFD1F4081541724
:1034800061F084E893E00E949618209183053091C2
:10349000840580918D0590918E05219641F7C0E2BB
:1034A000D0E004C02091830530918405F901EC0F30
:1034B000FD1F3081FC01EC0FFD1F2081321741F010
:1034C00080EB93E00E94961880918D0590918E0577
:1034D0002196C033D10531F76AE072E00E943402D0
:1034E00000918B0510918C05612C712CC0EFDFEFE2
:1034F00004C000918B0510918C050C0F1D1F0E94BC
:10350000DE1FD8016C932196A1F7C0EFDFEF009189
:103510008D0510918E050C0F1D1F0E94DE1FF801F6
:1035200060832196A1F7C0EFDFEF00919105109124
:1035300092050C0F1D1F0E94DE1FD8016C9321966F
:10354000A1F7C0E2D0E000918B0510918C050C0F23
:103550001D1F0E94DE1FF80160832196C033D10534
:1035600091F7C0E2D0E000918D0510918E050C0F0F
:103570001D1F0E94DE1FD8016C932196C033D10518
:1035800091F7C0E2D0E000919105109192050C0FE7
:103590001D1F0E94DE1FF80160832196C033D105F4
:1035A00091F780918B0590918C05DC015097E0910B
:1035B0008105F0918205709720E030E04D914193B4
:1035C0002F5F3F4F20343105C9F740918D05509151
:1035D0008E05DA015097E0918305F091840570978C
:1035E00020E030E06D9161932F5F3F4F2034310533
:1035F000C9F76091910570919205DB015097E091B8
:103600008705F0918805709720E030E0CD91C19357
:103610002F5F3F4F20343105C9F70E94EA01892B03
:1036200009F044C2C0EFDFEFA0918705B091880593
:10363000AC0FBD1FE0919105F0919205EC0FFD1FBD
:103640009C918081981721F08DEF93E00E9496184D
:103650002196C033D10541F7C0EFDFEFA09183057C
:10366000B0918405AC0FBD1FE0918D05F0918E05E2
:10367000EC0FFD1F9C918081981721F082E294E06D
:103680000E9496182196C033D10541F7809181059B
:103690009091820520918B0530918C05C0EFDFEF72
:1036A000FC01EC0FFD1F5081F901EC0FFD1F408163
:1036B000541761F087E494E00E9496188091810588
:1036C0009091820520918B0530918C05219641F7D0
:1036D000C0E2D0E008C080918105909182052091E0
:1036E0008B0530918C05DC01AC0FBD1FF901EC0F8F
:1036F000FD1F9C918081981721F08EE694E00E9436
:1037000096182196C033D10531F7809187059091A5
:10371000880540918D0550918E05BC010E94EA01FB
:10372000892B09F0BEC16091870570918805C0E0C2
:10373000D0E0E0918B05F0918C05EC0FFD1F90819E
:10374000FB01EC0FFD1F8081981741F084E994E0A4
:103750000E94961860918705709188052196C03265
:10376000D10539F7A0919105B0919205FB0180E058
:1037700090E02D912193019680329105D1F78091AF
:10378000830590918405AC010E94EA01892B09F020
:1037900083C140918B0550918C05C0E0D0E0E09151
:1037A0008305F0918405EC0FFD1FDA01AC0FBD1FFE
:1037B0009C918081981741F080EC94E00E949618CB
:1037C00040918B0550918C052196C032D10539F777
:1037D00060918F05709190058091890590918A057F
:1037E0000E94EA01892B09F052C140918D05509148
:1037F0008E0560918F057091900580918B05909159
:103800008C050E94EA01892B09F03CC140918B058F
:1038100050918C05609191057091920580918D0574
:1038200090918E050E94EA01892B09F026C1C09172
:103830008D05D0918E0500E010E0E0918905F091B2
:103840008A05E00FF11FDE01A00FB11F9C9180815E
:10385000981741F08CEE94E00E949618C0918D0567
:10386000D0918E050F5F1F4F0032110531F7009187
:103870008B0510918C05E0919105F0919205812CBA
:10388000912CA12CB12CC12CD12CE12CF12CD801E4
:10389000A80DB91D80819C91892781939401A50170
:1038A000B601C701A1E00E942C1E49015A016B011B
:1038B0007C01A0E20E94411E51F7E0918F05F0913A
:1038C0009005812C912CA12CB12CC12CD12CE12C58
:1038D000F12CDE01A80DB91D80819C91892781936F
:1038E0009401A501B601C701A1E00E942C1E490167
:1038F0005A016B017C01A0E20E94411E51F7FFEFCB
:103900006F1A7F0A25E06216710409F0EFCDEFE32C
:10391000F5E0CE019F0121503109A991A295AF7028
:10392000B0E0A25FBA4F4C91D9014C93DC018C916D
:103930008F70A82FB0E0A25FBA4F8C91808332962F
:10394000B5E0EF37FB0729F710927E058EE395E08F
:103950000E94861484E395E00E948614809191056C
:103960009091920540979093920580939105409095
:103970008F0550909005E0E14E1A51085092900545
:1039800040928F0560908D0570908E05F0E16F1A62
:10399000710870928E0560928D0580908B059090D5
:1039A0008C0520E1821A910890928C0580928B05FB
:1039B000A0908905B0908A05A0E1AA1AB108B0923A
:1039C0008A05A0928905C0908705D0908805B0E14E
:1039D000CB1AD108D0928805C0928705E090850562
:1039E000F0908605E0E1EE1AF108F0928605E0928B
:1039F00085050091830510918405005111091093EC
:103A0000840500938305C0918105D091820560975C
:103A1000D0938205C093810520907F05309080056A
:103A2000F0E12F1A31083092800520927F050E9424
:103A3000011FC2010E94011FC3010E94011FC40196
:103A40000E94011FC5010E94011FC6010E94011FA3
:103A5000C7010E94011FC8010E94011FCE010E94E0
:103A6000011FC1010E94011F0E94921880E090E096
:103A7000CDB7DEB7E2E10C94111E8BED93E00E940E
:103A80009618D5CE8BED93E00E949618BFCE8BEDA5
:103A900093E00E949618A9CE8BED93E00E949618B1
:103AA00078CE8BED93E00E9496183DCE8BED93E09F
:103AB0000E949618B7CD85E393E00E949618B3CC88
:103AC0008DE193E00E94961840917F05509180050A
:103AD000C8CB8AE492E00E9496184DCB81E692E032
:103AE0000E94961855CB88E792E00E9496185DCB0D
:103AF0008FE892E00E94961865CB86EA92E00E94D9
:103B000096186DCB8DEB92E00E94961875CB85EDE3
:103B100092E00E9496187DCB8DEE92E00E9496185E
:103B200085CB85E093E00E9496188DCB689401C008
:103B3000E8948F929F92CF93DF930E94A41DDF9110
:103B4000CF919F908F90089588249924F401E401E7
:103B5000B0E49F93AA279A158B049C04ED05FE05FB
:103B6000CF05D007A10798F4AD2FDC2FCF2FFE2F64
:103B7000E92D982C892E982F872F762F652F542F7B
:103B8000432F322F2227B85031F7BF9127C01B2E69
:103B9000BF91BB27220F331F441F551F661F771F7E
:103BA000881F991F881C991CEE1FFF1FCC1FDD1F4B
:103BB000AA1FBB1F8A149B04EC05FD05CE05DF057B
:103BC000A007B10748F08A189B08EC09FD09CE0947
:103BD000DF09A00BB10B21601A94E1F62EF49401D9
:103BE000AF01BE01CD01000C08952F923F924F927C
:103BF0005F926F927F928F929F92AF92BF92CF927D
:103C0000DF92EF92FF920F931F93CF93DF93CDB785
:103C1000DEB7CA1BDB0B0FB6F894DEBF0FBECDBFFD
:103C200019942A88398848885F846E847D848C84BE
:103C30009B84AA84B984C884DF80EE80FD800C81D7
:103C40001B81AA81B981CE0FD11D0FB6F894DEBFBA
:103C50000FBECDBFED0108950024A7FD00942A0FEB
:103C6000301D401D501D601D701D801D901D08954C
:103C70002A193B094C095D096E097F09800B910BDC
:103C800008950024A7FD00942A173005400550052B
:103C9000600570058005900508950F931F93CF93DD
:103CA000DF93869F8001879F100D969F100D112432
:103CB000C8010E94691EEC01009729F0A80160E08C
:103CC00070E00E94EB1FCE01DF91CF911F910F9109
:103CD0000895CF93DF938230910510F482E090E055
:103CE000E0919605F091970520E030E0A0E0B0E08B
:103CF000309739F14081518148175907B8F048177A
:103D0000590771F482819381109729F013969C933F
:103D10008E9312972CC0909397058093960527C099
:103D20002115310531F04217530718F0A901DB01C5
:103D300001C0EF019A01BD01DF010280F381E02D96
:103D4000D7CF21153105F9F0281B390B2430310567
:103D500080F48A819B816115710521F0FB019383B9
:103D6000828304C09093970580939605FE01329656
:103D700044C0FE01E20FF31F819391932250310959
:103D8000398328833AC02091940530919505232BDF
:103D900041F4209102023091030230939505209363
:103DA000940520910002309101022115310541F462
:103DB0002DB73EB74091040250910502241B350BEC
:103DC000E0919405F0919505E217F307A0F42E1BFE
:103DD0003F0B2817390778F0AC014E5F5F4F24176F
:103DE000350748F04E0F5F1F50939505409394059B
:103DF0008193919302C0E0E0F0E0CF01DF91CF9199
:103E00000895CF93DF93009709F487C0FC013297A0
:103E100013821282C0919605D0919705209781F464
:103E200020813181280F391F80919405909195054B
:103E30008217930779F5F0939505E09394056DC08B
:103E4000DE0120E030E0AE17BF0750F412964D912E
:103E50005C9113979D014115510509F1DA01F3CFEA
:103E6000B383A28340815181840F951F8A179B07DA
:103E700071F48D919C911197840F951F02969183F7
:103E8000808312968D919C91139793838283211541
:103E9000310529F4F0939705E09396053EC0D901CA
:103EA0001396FC93EE9312974D915D91A40FB51F5D
:103EB000EA17FB0779F480819181840F951F0296A0
:103EC000D90111969C938E938281938113969C9332
:103ED0008E931297E0E0F0E08A819B81009719F0C1
:103EE000FE01EC01F9CFCE01029628813981820FC3
:103EF000931F20919405309195052817390769F48F
:103F0000309729F4109297051092960502C01382FB
:103F10001282D0939505C0939405DF91CF910895B7
:103F20008F929F92AF92BF92CF92DF92EF92FF92C9
:103F3000CF93DF93EC01688179818A819B81611540
:103F400071058105910521F464E279ED8BE597E037
:103F50002DE133EF41E050E00E94C22249015A01B5
:103F60009B01AC01A7EAB1E40E94E1226B017C0154
:103F7000ACEEB4EFA50194010E94EF22C60ED71E4D
:103F8000E81EF91EF7FE06C081E0C81AD108E10854
:103F900080E8F80AC882D982EA82FB82C701B601AA
:103FA0009F77DF91CF91FF90EF90DF90CF90BF9000
:103FB000AF909F908F9008950C94901F86E092E0B0
:103FC0000C94901F6093060270930702809308027E
:103FD000909309020895DC0101C06D934150504057
:103FE000E0F708950F931F93CF93DF93CDB7DEB71C
:103FF0002E970FB6F894DEBF0FBECDBF0E891F8976
:1040000086E08C831A8309838FEF9FE79E838D83DD
:10401000AE01465E5F4F688D798DCE0101960E949C
:104020002120EF81F885E00FF11F10822E960FB648
:10403000F894DEBF0FBECDBFDF91CF911F910F91DE
:1040400008952F923F924F925F926F927F928F923C
:104050009F92AF92BF92CF92DF92EF92FF920F9317
:104060001F93CF93DF93CDB7DEB72C970FB6F8949D
:10407000DEBF0FBECDBF7C016B018A01FC01178240
:104080001682838181FFBDC1CE0101964C01F701EB
:104090009381F60193FD859193FF81916F018823B0
:1040A00009F4ABC1853239F493FD859193FF819179
:1040B0006F01853229F4B70190E00E943222E7CFE8
:1040C000512C312C20E02032A0F48B3269F030F4F6
:1040D000803259F0833269F420612CC08D3239F07E
:1040E000803339F4216026C02260246023C0286018
:1040F00021C027FD27C030ED380F3A3078F426FF75
:1041000006C0FAE05F9E300D1124532E13C08AE0E2
:10411000389E300D1124332E20620CC08E3221F4D3
:1041200026FD6BC1206406C08C3611F4206802C0E5
:10413000883641F4F60193FD859193FF81916F01DB
:104140008111C1CF982F9F7D9554933028F40C5F37
:104150001F4FFFE3F9830DC0833631F0833771F0D1
:10416000833509F05BC022C0F801808189830E5F2E
:104170001F4F44244394512C540115C03801F2E0E0
:104180006F0E711CF801A080B18026FF03C0652D61
:1041900070E002C06FEF7FEFC5012C870E942722DD
:1041A0002C0183012C852F77222E17C03801F2E0D5
:1041B0006F0E711CF801A080B18026FF03C0652D31
:1041C00070E002C06FEF7FEFC5012C870E941C22B8
:1041D0002C012C852068222E830123FC1BC0832DFB
:1041E00090E048165906B0F4B70180E290E00E94D2
:1041F00032223A94F4CFF50127FC859127FE819174
:104200005F01B70190E00E94322231103A94F1E050
:104210004F1A51084114510471F7E5C0843611F06A
:10422000893639F5F80127FF07C0608171818281E5
:1042300093810C5F1F4F08C060817181882777FDD3
:104240008095982F0E5F1F4F2F76B22E97FF09C0D3
:1042500090958095709561957F4F8F4F9F4F206807
:10426000B22E2AE030E0A4010E946422A82EA818F1
:1042700044C0853729F42F7EB22E2AE030E025C0D5
:10428000F22FF97FBF2E8F36C1F018F4883579F000
:10429000B4C0803719F0883721F0AFC02F2F2061CC
:1042A000B22EB4FE0DC08B2D8460B82E09C024FF41
:1042B0000AC09F2F9660B92E06C028E030E005C0E6
:1042C00020E130E002C020E132E0F801B7FE07C093
:1042D00060817181828193810C5F1F4F06C0608174
:1042E000718180E090E00E5F1F4FA4010E94642264
:1042F000A82EA818FB2DFF77BF2EB6FE0BC02B2DC6
:104300002E7FA51450F4B4FE0AC0B2FC08C02B2DB9
:104310002E7E05C07A2C2B2D03C07A2C01C0752C63
:1043200024FF0DC0FE01EA0DF11D8081803311F4E0
:10433000297E09C022FF06C07394739404C0822FA3
:10434000867809F0739423FD13C020FF06C05A2C11
:10435000731418F4530C5718732C731468F4B701C2
:1043600080E290E02C870E94322273942C85F5CF56
:10437000731410F4371801C0312C24FF12C0B70198
:1043800080E390E02C870E9432222C8522FF17C008
:1043900021FF03C088E590E002C088E790E0B70104
:1043A0000CC0822F867859F021FD02C080E201C046
:1043B0008BE227FD8DE2B70190E00E943222A51426
:1043C00038F4B70180E390E00E9432225A94F7CF8C
:1043D000AA94F401EA0DF11D8081B70190E00E94DA
:1043E0003222A110F5CF332009F451CEB70180E27B
:1043F00090E00E9432223A94F6CFF70186819781AD
:1044000002C08FEF9FEF2C960FB6F894DEBF0FBE61
:10441000CDBFDF91CF911F910F91FF90EF90DF9073
:10442000CF90BF90AF909F908F907F906F905F9054
:104430004F903F902F900895FC010590615070407F
:104440000110D8F7809590958E0F9F1F0895FC015D
:104450006150704001900110D8F7809590958E0FB3
:104460009F1F08950F931F93CF93DF93182F092F4A
:10447000EB018B8181FD03C08FEF9FEF20C082FF96
:1044800010C04E815F812C813D81421753077CF41F
:10449000E881F9819F012F5F3F4F39832883108383
:1044A00006C0E885F985812F1995892B29F72E817A
:1044B0003F812F5F3F4F3F832E83812F902FDF91CE
:1044C000CF911F910F910895FA01AA27283051F139
:1044D000203181F1E8946F936E7F6E5F7F4F8F4F35
:1044E0009F4FAF4FB1E03ED0B4E03CD0670F781F94
:1044F000891F9A1FA11D680F791F8A1F911DA11D79
:104500006A0F711D811D911DA11D20D009F46894B1
:104510003F912AE0269F11243019305D3193DEF659
:10452000CF010895462F4770405D4193B3E00FD00F
:10453000C9F7F6CF462F4F70405D4A3318F0495DFA
:1045400031FD4052419302D0A9F7EACFB4E0A695DD
:104550009795879577956795BA95C9F700976105FF
:10456000710508959B01AC010A2E06945795479555
:1045700037952795BA95C9F7620F731F841F951F4A
:10458000A01D0895052E97FB1EF400940E94D922C9
:1045900057FD07D00E94F42207FC03D04EF40C9480
:1045A000D92250954095309521953F4F4F4F5F4F01
:1045B000089590958095709561957F4F8F4F9F4F8F
:1045C00008950E941623A59F900DB49F900DA49F5F
:1045D000800D911D11240895B7FF0C94E1220E94D3
:1045E000E122821B930B0895A1E21A2EAA1BBB1B8A
:1045F000FD010DC0AA1FBB1FEE1FFF1FA217B307AF
:10460000E407F50720F0A21BB30BE40BF50B661FC4
:10461000771F881F991F1A9469F760957095809588
:1046200090959B01AC01BD01CF010895A29FB001FF
:10463000B39FC001A39F700D811D1124911DB29FD6
:0E464000700D811D1124911D0895F894FFCF77
:10464E0000009805200001000000562C1EB5FDB29A
:10465E008129BD37495835D4B1307DDB57388012AA
:10466E001742F713F1056769D5BF09000000000076
:10467E00000000000000000000000000000000002C
:10468E0000000000000000000000616C6C6F6361B0
:10469E0074696F6E206F66206D206661696C65644B
:1046AE0000616C6C6F636174696F6E206F66206E53
:1046BE00206661696C656400616C6C6F636174691E
:1046CE006F6E206F662070206661696C6564006194
:1046DE006C6C6F636174696F6E206F6620712066FB
:1046EE0061696C656400616C6C6F636174696F6E97
:1046FE00206F662072206661696C656400616C6C67
:10470E006F636174696F6E206F66206D3220666113
:10471E00696C656400616C6C6F636174696F6E20A7
:10472E006F66206E32206661696C656400616C6C28
:10473E006F636174696F6E206F66207032206661E0
:10474E00696C656400616C6C6F636174696F6E2077
:10475E006F66207132206661696C656400616C6CF5
:10476E006F636174696F6E206F66207232206661AE
:10477E00696C65640063727970746F5F7363616CEA
:10478E0061726D756C745F626173652072657475AC
:10479E00726E73206E6F6E7A65726F0063727970CF
:1047AE00746F5F7363616C61726D756C745F62615F
:1047BE007365206F76657277726974657320696EA2
:1047CE007075740063727970746F5F7363616C617E
:1047DE00726D756C745F6261736520777269746552
:1047EE0073206265666F7265206F757470757400E4
:1047FE0063727970746F5F7363616C61726D756CE7
:10480E00745F626173652077726974657320616687
:10481E00746572206F75747075740063727970743C
:10482E006F5F7363616C61726D756C742072657409
:10483E0075726E73206E6F6E7A65726F0063727929
:10484E0070746F5F7363616C61726D756C74206FE1
:10485E00766572777269746573206E20696E7075F5
:10486E00740063727970746F5F7363616C61726DE3
:10487E00756C74206F7665727772697465732070CB
:10488E0020696E7075740063727970746F5F7363F4
:10489E00616C61726D756C742077726974657320CA
:1048AE006265666F7265206F7574707574006372E1
:1048BE007970746F5F7363616C61726D756C742067
:1048CE00777269746573206166746572206F757492
:1048DE007075740063727970746F5F7363616C616D
:1048EE00726D756C7420646F6573206E6F742068C2
:1048FE00616E646C65206E206F7665726C617000FF
:10490E0063727970746F5F7363616C61726D756CD5
:10491E007420646F6573206E6F742068616E646CB2
:10492E00652070206F7665726C61700063727970AD
:10493E00746F5F7363616C61726D756C74206E6FF2
:10494E0074206173736F63696174697665003031C9
:10495E003233343536373839616263646566002523
:10496E0030327820005D200020737461636B20620A
:0E497E00797465730A004552524F523A200078
:00000001FF
